:020000021000EC
:10000000E03F082095010100FB000100E100010034
:10001000090101001901010029010100000000008F
:10002000000000000000000000000000A1760100B8
:1000300039010100000000000177010059010100B1
:10004000B97C0100B97C0100B97C0100B97C0100D8
:10005000B97C0100B97C0100B97C0100B97C0100C8
:10006000B97C0100B97C0100B97C0100B97C0100B8
:10007000B97C0100B97C0100B97C0100B97C0100A8
:10008000B97C0100B97C0100B97C0100B97C010098
:10009000B97C0100B97C0100B97C0100B97C010088
:1000A000B97C0100B97C0100B97C0100B97C010078
:1000B000B97C0100B97C0100B97C0100B97C010068
:1000C000B97C0100B97C0100B97C01000814020070
:1000D00000C00720F4020000F8C20720680E0000EC
:1000E00004207146084203D0EFF3098007F002BEF6
:1000F000EFF3088007F0FEBD704708B5014805F032
:100100000DF8FEE70A0E020008B5024805F006F8F1
:10011000FEE700BF150E020008B5024804F0FEFF1E
:10012000FEE700BF200E020008B5024804F0F6FF0B
:10013000FEE700BF2B0E020008B5024804F0EEFFF8
:10014000FEE700BF380E020008B5024804F0E6FFE3
:10015000FEE700BF460E020008B507F053FA07F0AD
:10016000F1FABDE8084007F061BA0B4610B5401A35
:100170005C1AA24203D9C45843F8044BF8E710BDF7
:10018000034610B500221C1AA14202D943F8042BE1
:10019000F9E710BD164807F06DFB154807F06DFB39
:1001A000144C154DAC4201D3144D07E094E8030004
:1001B0000C3454F8042CFFF7D8FFF3E7AC4206D216
:1001C00054F8080B54F8041CFFF7DAFFF6E709F0BF
:1001D000A7F907F05FFB00F04DFA00F0D5FE4FF4F1
:1001E000164007F0A5FE064804F098FFFEE700BFA2
:1001F000E03F0820CC000100D8000100E000010031
:100200005A0E020007F060BA07F06EBA144B10B530
:100210001A68014612B94FF080521A60114C1868E2
:100220002468421894421A6007D20F4CA24204D8A4
:100230000E4A0B488C18046010460D4A1B68126861
:10024000934222BF064B00201A6039B1094A136855
:1002500001331360084B1860084B196010BD00BFD4
:10026000FCC2072004C30720FFBF072060D107207E
:1002700008C307200CC30720F8C2072000C30720CB
:1002800009F08EB909F094B930B504468BB06846D0
:1002900009F042FC224B079A2360089B214DA36082
:1002A00062602149214B52B90A68186882428ABFAC
:1002B00002F1604202F17042A2F5E82262606268D7
:1002C0001B68B2F5803F82BF02F17042A2F5E822BE
:1002D00062600022E2600A68934206D3991AC5F16F
:1002E000005303F504230B440BE0114B1B689342AE
:1002F00008D9991AC5F1005303F5F8230B44002BD4
:1003000000DDE36020460B4BE2611B68A3610A4BF2
:100310001B686361094B1B6823610BB030BD00BFD4
:100320006011000060D10720FCC2072004C3072031
:1003300008C30720F8C2072000C307200CC307200A
:1003400000207047034A044B1A60044A044B1A60A9
:10035000704700BF0080001004C307200040082041
:1003600008C30720014B1860704700BF18C307205F
:10037000014B1860704700BF10C3072008B5024842
:100380000AF072FBFEE700BF88FA010008B50248D8
:100390000AF06AFBFEE700BFA2FA010000207047E6
:1003A00001207047F8B5084B16461A680F461C46E0
:1003B00042B10D46EB1B9E4204DD236815F8010B8C
:1003C0009847F7E73046F8BD18C30720F8B5094B42
:1003D0000F46186816461C4658B10D46EB1B9E4248
:1003E00005DD23680020984705F8010BF6E726EAAB
:1003F000E670F8BD10C30720704700207047FFFF6C
:10040000074B1B689A68824207D05A68824204D020
:10041000DB681B1A5842584170470120704700BFE3
:1004200038C10720002070470020704730B50446CF
:100430008DB0A8B3684605F017FB9DF80030002585
:1004400003F03F0303939DF8013003A803F03F033B
:1004500004939DF802300B9503F01F0305939DF85C
:10046000043003F01F0306939DF8053003F00F03DB
:10047000013B0793BDF80630C3F30B03A3F26C7383
:1004800008939DF8033003F007030993BDF8083083
:10049000C3F30B03013B0A9309F0CCF984E8210074
:1004A00000200DB030BDFFFF70B50F4D0F4E2C6812
:1004B00014F0010415D1284608F0DAF888B14FF499
:1004C0000E70FFF7DDFE302380F835323A2380F8D6
:1004D000344280F8363280F837423060284608F0DF
:1004E000D3F8306870BD00BF34C3072038C307207D
:1004F00038B5064C236833B92C20FFF7C1FE0546FA
:1005000005F04EFA2560206838BD00BF24C30720DF
:1005100001480AF0A9BA00BFBCFA010038B5044688
:100520000D4607F0B3FC074BB0FBF3F00223B0FB22
:10053000F3F2AA4204D9B3F5807F01D00233F6E783
:10054000236138BD40420F007FB500F235260C46CE
:100550000122314603F0F2FD054648BB039002AA92
:1005600003A9304604F0BDF900BB0298039A8378D2
:1005700002FB03F182691348023A5A435208B2F56A
:10058000004F38BF0120104B4FEA510124BF0346F2
:100590004FF48060B1FBF0F1B2FBF0F200910193F7
:1005A00021460A480AF0EEF9012008E0084B00E075
:1005B000084B2A46214608480AF0E4F9002004B016
:1005C00070BD00BFFAFA0100F7FA010004FB010058
:1005D00000FB0100FDFA010032FB010038B5074CB9
:1005E00023684BB90820FFF74BFE0546FFF780FF55
:1005F000402328602B712560206838BD44C3072044
:1006000038B5054C256825B90120FFF739FE05707E
:100610002060206838BD00BF40C3072038B5084CB3
:1006200023685BB90C20FFF72BFE0546FFF760FF40
:1006300090232B7100232860AB602560206838BDB3
:100640001CC3072010B5044C23681BB90120FFF719
:1006500017FE2060206810BD20C3072010B5044C91
:1006600023681BB90120FFF70BFE2060206810BD36
:100670003CC30720AD49AE4A4023F0B58B614FF033
:10068000007393614FF480338B61AA4BADF5057D08
:100690001868072520F0F00018601868022440F060
:1006A00050001860186820F440501860086840F046
:1006B00040000860186820F47C201860186840F436
:1006C00028201860186820F470001860186840F43A
:1006D00020001860186820F040401860186840F04A
:1006E00000401860586820F03C005860586840F09E
:1006F00028005860586820F003005860086840F4EB
:1007000080300860586820F440505860086820F431
:1007100080000860D96821F44031D960116841F047
:1007200080711160596821F440215960596841F481
:10073000802159609868804901409960116841F4AE
:10074000897141F001011160996821F4701199607B
:10075000996821F070419960116821F44641116057
:10076000D96821F03001D960D96841F03001D960F1
:10077000D96821F47011D960136843F000731360D5
:10078000136823F08063136004F058FF01210A20EE
:1007900007F09CF901210A2007F0B0F96748012110
:1007A00005604460FFF7BAFE05F022FA012115202A
:1007B00007F08CF90121152007F0A0F9604801210C
:1007C00005604460FFF7AAFEFFF792FE642105F082
:1007D000B3F810B95B480AF047F907F0B3F901F034
:1007E00015FC10B958480AF03FF94FF4FA6004F0CC
:1007F000DEFEFFF78DFE07F049FB08F047FA53498C
:1008000008F050FB08F0C8F802460B4650480AF0C2
:10081000B9F807F039F8052804AC14D10023636057
:100820004C4B1B682360FFF773FE4B4B4B48D96C56
:100830001A6D5B6D00940AF0A5F8FFF769FE41F2AE
:10084000883004F0B4FEFFF72FFE4549FFF77CFE29
:10085000054668BB43480AF095F802F04DFCFFF7E7
:1008600023FE29462A4600F2352004F09FF83E4B2D
:100870003E4A00280CBF104618460AF0F5F8FFF76C
:1008800013FE3749FFF760FE90B939480AF0ECF8DB
:1008900002F0DEFB014637480AF074F802F0C8FBAC
:1008A000054602F0D5FB00FB05F133480AF06AF873
:1008B000324E334F336813F0010516D1304607F03E
:1008C000D7FE90B14FF40E70FFF7DAFC012380F8E9
:1008D0003432312380F835323A2380F8363280F8CA
:1008E00037523860304607F0CFFE26493868264D2B
:1008F000FFF72AFE18211148FFF710FEFFF708FE48
:100900002B684BB90820FFF7BBFC0646FFF7F0FD4C
:100910003823306033712E60286801F0DEFB054615
:10092000B0BB1A480AF0A0F833E000BF00C00920AD
:1009300020C0092000C00240F0FCFCFF0000034082
:10094000008008407DFB0100AEFB010000247449DB
:10095000D3FB01004440024000400240EBFB010099
:1009600063FC01006BFC01006AFB010065FB0100F8
:10097000A8FC0100C7FC0100D6FC01002CC3072025
:1009800030C30720F1FC01004CC30720F9FC010033
:100990000125FFF743FE01F0A1FC064618B9724895
:1009A0000AF062F83546FFF719FE01F019FC064619
:1009B00018B96E480AF058F835466D4E33681BB9C1
:1009C0000120FFF75DFC3060306801F0D7FBFFF7D6
:1009D00039FE01F06FFCFFF713FE01F03AFCFFF760
:1009E0003DFE01F06CFCFFF70BFE002101F034FC32
:1009F0008DB9FFF78DFDFFF7F1FD2D2101F0D8FB3B
:100A0000FFF7ECFD2D2101F0DFFBFFF7F9FDFF21E2
:100A100001F022FC0CE0FFF7E1FD0546FFF7FEFDCB
:100A200001F086FC08F0DAFAC1B2284601F0F4FBC6
:100A300010220021204608F018FE00230F22214634
:100A40004C4801F087FC80B9204608F07EFCC5B216
:100A5000284600F0CDFC484A484B2946002818BFDC
:100A60001346444A464809F08DFFFFF7EBFD01F0BD
:100A700023FC054600200BF0CBF9284409F0FCFFCD
:100A80004FF400720021204608F0EFFD204607F0E9
:100A900099F821463B4809F075FFFFF739FD8022A0
:100AA0000021204608F0E1FD204602F0ADFA227850
:100AB000FF2A04D02146344809F064FF29E0FFF7FB
:100AC000CDFD01F0FFFB09281DD1304809F0CCFF16
:100AD00021462F480AF0D4F821462E4809F052FF4B
:100AE0002D4809F0C1FF002303A92C4803930AF005
:100AF000C7F89DF80C30592B03D1204602F062FA5A
:100B000007E0274803E0274809F0AEFF264809F030
:100B1000ABFF4FF208031D684FF20C031C684FF245
:100B200010031E684FF470431A684FF20403AD0AB5
:100B30001968A40A1D4809F025FF2A4621461C48C9
:100B400009F020FF31461B4809F01CFFFFF7E0FCCD
:100B5000012004F079FA184809F086FFFFF7D8FC65
:100B60000DF5057DF0BD00BF14FD01002EFD010057
:100B700048C3072047FD010070FB010076FB010020
:100B80004DFD01006CFF010081FD01009DFD010094
:100B9000BFFD0100C4FD0100DFFD010022FE0100D8
:100BA00026FE01003EFE01006CFE01009EFE0100DB
:100BB000CAFE0100F7FE010014FF010010B5044C4D
:100BC00023681BB90120FFF75BFB2060206810BD84
:100BD00048C307207047FFFF10B59DF80800F9B91A
:100BE0003049D1F8C44044F40014C1F8C440D1F8ED
:100BF000AC4124F44064C1F8AC41D1F8AC4144F4B8
:100C00008064C1F8AC41A1F550214C6844F028043F
:100C10004C600C6844F000440C6001F5B8212AE0F7
:100C200001293DD11F49D1F8C44044F48064C1F882
:100C3000C440D1F8A84124F44014C1F8A841D1F827
:100C4000A84144F48014C1F8A841A1F550210C68D2
:100C500024F440540C600C6844F428240C600C6CA0
:100C600044F42A240C6410490C6844F040040C60DD
:100C700040248C610D490C68013A22430A600A46FF
:100C800013F1310F0BBF0B68096823F030030B43DE
:100C90001360536843F00203536013690343136105
:100CA000012010BD00C00F4000C00920000003401B
:100CB000044B9960DA68D206FCD4024B9868C0B243
:100CC000704700BF008008407047FFFFF8B504463A
:100CD0000F461646104A53690F4D13F4000FFAD011
:100CE0004FF48003EB6102212046FFF7E1FF394614
:100CF0002046FFF7DDFF310A2046FFF7D9FFF1B2AA
:100D00002046FFF7D5FF6B691B02FCD5024B4FF461
:100D100080029A61F8BD00BF20C0092013B50822E7
:100D200000926FF0300300210446FFF755FF234B7C
:100D300020461A6842F400221A60214AD16821F044
:100D4000C001D160196841F480111960D16821F4A3
:100D50004071D160196841F480011960D16821F4B3
:100D60004051D1604FF4002199614FF48011996195
:100D70004FF480019961196821F400011960D3686A
:100D8000002123F44043D3604FF40062FFF79EFF3D
:100D900020464FF400520321FFF798FF20464AF601
:100DA00045420521FFF792FF45F2555220460B219F
:100DB00002B0BDE81040FFF789BF00BF20C0092086
:100DC00000C002402DE9F74F144E4FF480188146C1
:100DD0008A463746B3464346202572691102FCD540
:100DE000A5F12004FB61A4B2AC4209DA1AF80410A0
:100DF000484601340193A4B2FFF75AFF019BF3E781
:100E0000DBF814201202FBD52035B5F5087FC7F8B2
:100E10001880E2D103B0BDE8F08F00BF20C00920E8
:100E200010B50A48ADF5007DFFF778FF084C0023A8
:100E30004FF47A726946206805F048FE0028F6D023
:100E400069460248FFF7BEFFF1E700BF78C50720FB
:100E500074C5072010B50446FFF736FF204610BDC5
:100E60002DE9F041ADF5A06D3D490AA803F0C6FC9F
:100E7000024610B9044613AE10E03949394809F06A
:100E800081FD394809F0F0FD002435E09DF811504E
:100E90004DB3364930460AF0A1F850B9802302A973
:100EA0000AA80896099303F0EDFC07460028EDD048
:100EB00018E03378002BF1D064252A463946B3A8D0
:100EC00008F0D3FB2649B3A80AF079F83146B3A855
:100ED0000AF075F82448B3A905FB04000AF088F865
:100EE0000134DBE70025204E642707FB0560013550
:100EF00009F0BAFDAC42F8DA1D4E0025012218496E
:100F0000B3A803F01BF9184B642101FB0531012242
:100F10000746184803F050F9804601AB4FF40072C1
:100F200033A9144803F0E2F9B8F1000F11D187B9E1
:100F30000028FDD1034633A94FF0FF32306805F099
:100F4000BFFC01AB4FF4007233A90A4803F0CEF99D
:100F5000EEE70135A542D1DD0DF5A06DBDE8F081CC
:100F600028FF01002BFF010079C507204FFF01007A
:100F700074C5072050C3072008B5FFF771FF4FF471
:100F80007A7006F043F9F8E713B500224FF40071C8
:100F9000032005F073FC104B0024186002238DE839
:100FA00018004FF4805223460C490D4805F0E0FE2E
:100FB00003234FF4806200930194234609490A48B1
:100FC00005F0D6FE2046214604F0BCFA05F0A2FF4B
:100FD000204602B010BD00BF74C5072089FF010084
:100FE000790F010097FF0100210E010010B5054C9B
:100FF0002046FFF7EFFD2046BDE81040024A0349B6
:10100000FFF79EB978C5072014C30720550E0100CD
:1010100010B54FF6FF74242303FB0101884209D069
:1010200043782BB1038C1344A34228BF2346038487
:101030002430F3E710BDFFFF37B5002302A840F8C6
:10104000043D0C4B04215B6898470B4B019A1C68CC
:101050000546141B1A60042122460848FFF7D8FFF2
:10106000224602210648FFF7D3FF281C18BF0120A3
:1010700003B030BD4CCD07201CCE072060CD07202B
:1010800039CE072008B50B4B197803788B420A4BF1
:101090000BBF1A889A880132013214BF9A801A80D5
:1010A000064B8170DB6820219847003018BF012073
:1010B00008BD00BF05C00720F1CD07204CCD07209B
:1010C0000A4B02781B789A42094B0BBFDA881A89BF
:1010D000013201320CBFDA801A810379C3F3C202F4
:1010E000073262F3C5030371FFF7CCBF05C00720C9
:1010F000F1CD072010B50749002311F823409A00CD
:10110000844202D10348104410BD0133042BF4D1B2
:10111000002010BD0BCE072070B1C3780133DBB2C5
:10112000FF2BC37008D105480023C118CA780433C7
:101130005208102BCA70F8D1704700BF0BCE0720A1
:10114000242202FB01010346024630B5914206D03B
:101150001446243212F8235C002DF7D10FE0044628
:10116000002599420BD01A79C2F3C2001A8C42EAC8
:101170000042AA4284BF1C4615462433F1E72046AC
:1011800030BDFFFF38B50546C90001F10804FFF77F
:1011900053FF1C4B2A781B789A4204D102211A482B
:1011A000FFF7CEFF0CE004211848FFF7C9FFEB78EA
:1011B00033B990F82330042443F0800380F82330BF
:1011C000002380F8203080F8213002462B4690F82A
:1011D000231080F8224021F07F01C4F306240C4341
:1011E00080F8234005F1200153F8044B8B4242F86C
:1011F000044BF9D1064A0379127862F3C5030371EF
:1012000038BD00BF05C0072039CE072060CD0720BC
:1012100004C0072008B5FFF76DFF0346D8B9FFF7F4
:1012200069FF0346B8B90D4AD378D179D07A8B4299
:1012300096BF1946131D1346814294BF0846084BBA
:10124000D17B084A814238BF1346074900221A6001
:10125000CA7A0132CA72184608BD00BF0BCE0720F9
:1012600013CE072017CE0720F1CD07202DE9F84F28
:1012700005460C464FF0240909FB0219DFF868A166
:10128000DFF868B14E1C4FF000084C4500F09A8022
:1012900094F823301A0624D5B5B12A7861788A42A9
:1012A00005D16F7816F8010C874200F08D80E87840
:1012B00050B16878884207D116F8011C914203D1D9
:1012C000A979A27991427FD094F82220218C03F051
:1012D0007F0342EA0323994271DB2046FFF7D2FEE7
:1012E00072E06278002A6AD06DB3297901F0C001FA
:1012F000C02917D116F8010C6978884202D12878E4
:10130000904261D0E778A87887420CD191420AD107
:1013100016F8010C2978884205D1A079A97988426C
:1013200001D151E079B1A878E17888420BD1697890
:10133000914208D116F8010C2978884203D1A0798E
:10134000A979884246D094F82210208C03F07F03BC
:1013500041EA0323984232DB237984F82080C3F3E7
:10136000C201CFB284F821801FB12046FFF7A8FE4A
:1013700025E003F0C003C02B19D016F8010C9AF831
:101380000030984213D1E3789A4210D07BB1637950
:10139000032262F307136371E1702046FFF790FEAA
:1013A00023799BF8002062F3C503237100E0012735
:1013B0006078FFF79FFE08B1C0F8008027B9243499
:1013C000243662E7BDE8F88F24220021204608F089
:1013D0004CF9F4E7237984F820806FF3C50384F88F
:1013E00021802371EBE700BF05C0072004C0072060
:1013F000431EDBB2FD2B9DBF024B18700120002065
:10140000704700BF05C00720014B1878704700BF28
:1014100005C007202DE9F743044691461E469DF876
:1014200028500F46002966D0364B93F8008041457E
:1014300063D00F2E61D8002861D02022002108F04F
:1014400014F9FF2F237914BF09F00302002262F37D
:101450008713032262F302032B4A6770127884F821
:10146000008062F3C503294A2371137884F802804F
:101470000133DBB21370A3710BAB019315B94FF0BD
:1014800001081BE004F10809019AE079134652684B
:1014900053F8081B00EB02085FFA88F8013DB8F129
:1014A000180F0193EDB207D8484408F0B8F884F853
:1014B0000780002DE8D1E2E74FF00008DFF85090F8
:1014C0000123384689F80030FFF714FE0546FFF780
:1014D00023FE002389F80030637925B966F30713EA
:1014E0006371E57005E0AA7862F3071363716B78A6
:1014F000E370404603E0084601E00020FFE703B048
:10150000BDE8F08305C0072004C00720F0CD072008
:10151000FDCD0720124B012270B51A7004461E46FD
:1015200008B9002518E0FFF7ADFD05460028F8D002
:10153000237903F0C003402B06D0C02B0AD1E378F7
:1015400053B162789A4207D0617920460909FFF7C2
:1015500019FE01E0802BF7D000233370284670BDC0
:10156000FDCD072082B02DE9F0439146421ED2B254
:101570008DB0FD2A05460E4615939DF8688001D969
:10158000002057E0002BFBD0179F002FF8D0199BAD
:10159000002BF5D0189B002BF2D0169B002BEFD020
:1015A00048220021264808F060F8902200212548B2
:1015B00008F05BF810220021234808F056F8234B6E
:1015C00000241C605C609C60214B1C605C609C6023
:1015D000204B1D70204B214D1E7015AE0FCE0FC538
:1015E0003368182221461E482B6008F03EF8494611
:1015F00017221B4809F021FD21462046B847002844
:10160000BED0B8F1000F02D1FFF716FD12E006239D
:101610000293144B2246019301230093FF2104A857
:10162000FFF7F8FE0028ABD004A8FFF773FF0028EF
:10163000A6D0E9E70DB0BDE8F04302B0704700BFA7
:1016400039CE072060CD07200BCE0720FFCD072025
:10165000F1CD072005C00720FECD07204CCD072087
:1016600020CE0720A0FF010030B5182B8DB016D872
:10167000B2FA82F41D1C18BF01256409AC420ED0D9
:101680000293019200950A469DF84030014604A855
:10169000FFF7C0FE18B104A8FFF73CFF00E00020F0
:1016A0000DB030BD13B5537914781B090093024671
:1016B0000B4620460321FFF7D7FF02B010BDFFFF06
:1016C00000231846044A12F8231009B10130C0B2B1
:1016D0000133042BF7D170470BCE07202DE9F041E1
:1016E00088B020220021684607F0BFFFA14B1B787D
:1016F00003F0FF04002B40F039819F4F20213B690C
:1017000068469847002800F084809C4D6B88013320
:101710006B80FFF7D5FF9DF80420A87202F0070345
:10172000032B04D0964A137843F0010309E0954B4C
:101730001D789DF80230AB4205D1914A137843F0F1
:1017400002031370E4E0C2F3C2029DF800E09DF8CA
:1017500006008D49D6B204EB440313F801C0F445EA
:101760000BD10B4493F801C0844506D1997801242C
:101770008E1B18BF01269A7018E00134042CEAD1A0
:1017800082490B689A70804A587002F109008342BE
:1017900083F800E040F0C9800A609DF800009DF8E1
:1017A0000230834240F0C480002426469DF80200A7
:1017B000FFF730FD9DF8022002709DF80220427074
:1017C00000228270FFF7A8FC04B116B39DF8003028
:1017D000AB4200F09C809DF80160FF2E1BD13B685E
:1017E00020216846984720B9654A137843F00403DE
:1017F00013709DF8053003F00F02511C61F30303D1
:101800008DF80530C3F303139A4202DA6846FFF7F6
:1018100039FC00247CE0B5422BD164B99DF8073037
:101820004BB13B6820216846984720B9544A137849
:1018300043F0040313709DF8043003F0C003402B01
:1018400012D19DF807306A4613B91821504808E0B4
:101850000C214A48FFF726FF002858D100216A468C
:101860000846FFF71FFF52E09DF80330002B4ED1D2
:10187000F4E7484B1B78002BCBD09DF8054004F0D3
:101880000F074FEA14184745C3DA013767F303041B
:101890003046FFF72FFC8DF805409DF80340A54228
:1018A00021D19DF8041001F0C001402906D0A1F11A
:1018B00080035A425A41144610B90CE0012260B12B
:1018C000C029437805D19E4203D0003318BF0123BD
:1018D00004E0002302E0C0290ED10346134303F0C5
:1018E000010420B908E094B908B941460CE04378F6
:1018F0008DF80330857802E000258DF803506846A6
:10190000FFF7C0FB1CB129466846FFF73BFC6C465D
:10191000FFF792FB204604221F49FFF7A7FC022293
:101920001E492046FFF7A2FC20E003330B6034E79A
:1019300085423FF439AFFFF76DFC0446FFF7ECFB3F
:1019400023783BB19DF80530A27803F00F03934252
:101950003FF72AAF9DF8003023709DF80230637086
:101960009DF80530C3F30303A3701DE708B0BDE87D
:10197000F08100BFFDCD07204CCD0720F1CD072021
:1019800038CE072005C00720FFCD072000C0072064
:1019900020CE0720FECD072060CD072039CE0720BE
:1019A00000231846094AD118497809B10130C0B25C
:1019B0002433902BF7D1064B5A780AB10130C0B2CC
:1019C00093F825300BB10130C0B2704760CD0720CD
:1019D00039CE072070B53E4C4FF48035E5613D4C63
:1019E000A0602046C5683B4CED06FBD4A0680D46C0
:1019F000C0B20BB923465FE02346002A63D0072A12
:101A00000E782DDD9E604E78083A9E608E789E603E
:101A1000CE789E600E799E604E799E608E799E6033
:101A200001F10806C979996099694907FCD5A1684F
:101A30002970A1686970A168A970A168E970D96866
:101A4000C906FCD4A168083505F8041CA16805F88E
:101A5000031CA16805F8021CA16805F8011C1AE026
:101A6000032A1ADD9E604E78043A9E608E789E604E
:101A70000E1DC9789960D968C906FCD4A1680435DF
:101A800005F8041CA16805F8031CA16805F8021CF0
:101A9000A16805F8011C3146AFE701319E60013AAB
:101AA000DE68F606FCD4A668013505F8016CA4E7EB
:101AB000E668F606FCD4A6686E1AB24203DD15F895
:101AC000016B9E60F4E7024B4FF480329A6170BD67
:101AD00000C009200080084007B5002302A901F8D2
:101AE000013D01231A4600F01F00FFF773FF9DF828
:101AF000070003B05DF804FB13B502AC04F8011D48
:101B000000F01F0000230122214640F02000FFF7D3
:101B100061FF02B010BD08B51720FFF7DDFFC0F36D
:101B2000001008BD70210720FFF7E6BF0A4600231A
:101B30000146A020FFF74EBF08B50020FFF7CCFFFD
:101B4000BDE8084000F0FE010020FFF7D5BFFFFF11
:101B5000024B4FF08072DA61704700BF20C009204D
:101B600008B50020FFF7B8FF40F00101C9B200201E
:101B7000FFF7C2FF024B4FF080729A6108BD00BFB1
:101B800020C0092020210720FFF7B6BF00231A46F6
:101B90001946E120FFF71EBF37B504460D46FFF793
:101BA000F5FF20462946FFF7C1FF0D4B4FF080722D
:101BB0001C469A610022ADF80620BDF806300133BC
:101BC0009BB2ADF8063033B94FF08073E361FFF795
:101BD000DDFF03B030BDFFF79EFF0028EDD0F3E737
:101BE00020C0092008B51720FFF776FF00F001009C
:101BF00080F0010008BD40210720FFF77DBF08B538
:101C00000A46012301466120FFF7E4FEC0F34200CB
:101C100008BD00231A461946E220FFF7DBBE70B567
:101C2000064600200D461446FFF756FF16B100F099
:101C3000BF0002E040F04000C0B215B100F0DF018B
:101C400001E040F0200114B101F0EF0101E041F0AA
:101C500010010020BDE87040FFF74EBF10B50446EC
:101C60000020FFF739FF14B900F0F7010DE0012C57
:101C700004D100F0FB0141F0080106E0022C14BF82
:101C800040F0080140F00C01C9B20020BDE810404E
:101C9000FFF732BF08B50020FFF71EFFBDE8084080
:101CA00040F00201C9B20020FFF726BF08B50020AE
:101CB000FFF712FFBDE8084000F0FD010020FFF72C
:101CC0001BBF40F6DD13984206D840F66213B0F50C
:101CD000166F38BF184600E01846A0F51661C9B265
:101CE0000520FFF709BF10B504460620FFF7F4FEF4
:101CF000FA2C00F0D70102D141F0200104E0B4F544
:101D0000FA6F08BF41F008010620BDE81040FFF758
:101D1000F3BE10B504460620FFF7DEFE032C28BFF5
:101D2000032420F0060040EA4401C9B20620BDE8C1
:101D30001040FFF7E1BEF9284FF0FA0305D9B0F5DE
:101D40007A6F88BF4FF47A6000E01846B0FBF3F07A
:101D50000F2900F1FF30C0B228BF0F2141EA001166
:101D6000C9B20420FFF7C8BE1130C0B2162804D88B
:101D7000202928BF2021FFF7BFBE7047032804D0C9
:101D8000042814BF0321022100E001210320FFF7F2
:101D9000B3BE0A46002301463020FFF71BBE0A46A9
:101DA000002301462A20FFF715BEFFFF73B50E463C
:101DB00015460446FFF72DFFFFF7E8FE2B4B4FF0CB
:101DC0008072DA61FFF772FF002211460120FFF7EF
:101DD00026FFFFF7A7FE0220FFF740FF3046FFF780
:101DE00070FF2846FFF77FFF0320FFF792FF0321D4
:101DF0000220FFF781FE00210120FFF77DFE032175
:101E00004FF4FA70FFF797FF21460020FFF7ACFF71
:101E100000211220FFF770FE00211320FFF76CFE57
:101E200000211420FFF768FE00211520FFF764FE53
:101E300000211620FFF760FE0D4B18681B790090FB
:101E400005208DF80430FFF799FF68460521FFF75C
:101E5000A0FF05216846FFF7A2FFFFF71BFF4FF425
:101E6000FA6003F08FFB02B070BD00BF20C00920F4
:101E7000A7FF010070B5174E326822B92021032058
:101E800004F0FCFC3060144D2A6822B920210120A6
:101E900004F0F4FC2860114C216821B903220120D0
:101EA00004F0ECFC20604FF4FA6240F6C3112020ED
:101EB000FFF77CFFFFF754FE1620094A012103F0CB
:101EC00023FD306828B1286818B12068003018BF99
:101ED000012070BD88CE072084CE07208CCE07203D
:101EE0008D1F010070B50379014603F0C003C02BBC
:101EF0000CBF0E4B0E4B88B01D68002306461A46D9
:101F0000284604F0DDFC044660B9034602466946F3
:101F1000284604F0DBFD234622463146284604F0DD
:101F2000CFFC0446204608B070BD00BF84CE072019
:101F300088CE072038B504460D46FFF765FA2378AA
:101F400083420AD0E37843B908F0BEFDBD2300F018
:101F5000030000FB033003F015FBFFF7F9FDFFF76B
:101F6000EBFDA9B22046FFF717FEFFF70BFEFFF7C8
:101F7000F7FD05F0A9FA022804D1034B00211868E7
:101F800004F072FD012038BD8CCE072007B5002378
:101F900002A941F8043D084B186804F065FD019B57
:101FA0003BB1064B4FF080521A60BFF34F8FBFF327
:101FB0006F8F03B05DF804FB8CCE072004ED00E0CA
:101FC00038B504460D46FFF70DFE48B1A9B22046CC
:101FD000FFF715FEFFF706FE08B9FFF70CFE01201C
:101FE00038BD042938B5054603D1041C18BF0124A7
:101FF00000E0002405F0D0FD2CB14FF47A720023EC
:1020000007F00CF82860204638BDFFFF00B50C4BE8
:102010008DB009930B4B0C4A0B930C4B0A930CABF2
:1020200043F8102D002204920FCB8DE80F00084BCF
:10203000084A01216A20FFF795FA0DB05DF804FB0C
:10204000751E0100C11F0100E31F0100351F0100C3
:10205000E51E0100ACFF010008B505F035FA0F4B95
:1020600002285B6913D15A020DD5FFF799FC0028AD
:102070000B484FF0000314BF01224FF0FF32194606
:10208000006804F023FDBDE80840FFF727BB5B02B2
:10209000F9D5FFF785FC0028F5D108BD00C009205F
:1020A0008CCE072013460A460179006803F07BBFF7
:1020B0001FB5002204AB047923F8042D02220092FC
:1020C00000680A46214603F059FF9DF80C009DF870
:1020D0000D3043EA002004B010BD10B504461922AB
:1020E0002A21FFF7DFFF0D222179206803F04AFF44
:1020F000A0F12A035842584110BDFFFF044A13883B
:102100001F2B9FBF581C1080024A42F823107047B3
:1021100094CE072098CE0720154AF0B513881646AE
:10212000012B21D9134A00201546013B984206DABB
:10213000516814680130091B42F8041BF6E70021BE
:102140000C466A684FF0010E02EB52008AB29342CD
:1021500008DD55F822700131B8423CBF0EFA02F298
:102160001443F3E7044B1C6000233380F0BD00BF31
:1021700094CE072098CE072090CE072008B50121E5
:10218000022005F0A3FC084B01209A6A22F0070206
:102190009A629A6A42F006029A62044AD36843F04D
:1021A0003003D36008BD00BF0080004000C0024083
:1021B00008B5044B417101F07F015A5C0321FFF720
:1021C00071FF08BDB1FF010008B5044B817101F03A
:1021D0007F015A5C0221FFF765FF08BDB1FF0100D6
:1021E00038B504460179006803F0E8FE054688B179
:1021F000002206212046FFF755FF00220721204636
:10220000FFF750FF2E212046FFF7D2FF2E21204658
:10221000FFF7DAFF284638BD642370B5B1FBF3F44D
:1022200004FB1311CCB20A21B4FBF1F501FB1541FB
:102230003031C9B20646FFF7C7FF092C88BF05F148
:1022400030013046BDE8704094BF2021C9B2FFF78D
:10225000AFBF01207047FFFF38B50D46044605F0BB
:1022600033FA05F00F032370114B15F0010F4FF0F7
:10227000010214BFDA619A61227812F0020F4FF066
:10228000020214BFDA619A61227812F0040F4FF053
:10229000100214BFDA619A61227812F0080F4FF42D
:1022A000807214BFDA619A61BDE8384005F01CBA4B
:1022B00020C0092001207047022003F0F9B9012055
:1022C0007047FFFF044B5B69180B00F00C00C3F371
:1022D00041231843704700BF20C0092010B50446B1
:1022E00081220121FFF7DEFE01222179206803F01F
:1022F00049FE10F0600F14BF0120002010BD38B55A
:1023000000210446FFF7D4FE812205B201212046B8
:10231000FFF7C8FE102095FBF0F006F0BBFC4FF075
:10232000765106F00BFDA16806F000FC38BDFFFFFA
:1023300008B5FFF7E4FF054906F000FD044906F083
:10234000B1FD4FF0844106F0F1FB08BD00001041E3
:102350000000A040F0B5ADF50B7D0E4617460146D6
:102360001D460122002301A8009301F025FF044629
:1023700070B91DB1294601A802F099F96B463A4699
:10238000314601A801F0B2FF044601A802F07DF930
:1023900020460DF50B7DF0BD7F2810B516D931B163
:1023A000FF2812D80A4B803833F8100010BD084AB5
:1023B00032F811408BB2844203D001318029F7D129
:1023C0000B4603F18000C0B210BD002010BD00BF5D
:1023D000320002000649002331F8132032B1824254
:1023E00001D00133F8E7034A32F81300704700BF09
:1023F000320102001203020010B501200C4604F065
:10240000E3FA2060003018BF012010BD01207047A2
:1024100010B5044605F058F802280AD100231946E1
:102420004FF0FF32204604F051FB431E5842584102
:1024300010BD012010BD10B5044605F045F8022876
:1024400007D100232046BDE810401A46194604F083
:1024500037BA10BD10B5044603F03AFC24B1012C84
:1024600006D100F081F901E000F002FD044600E031
:10247000042403F045FC204610BD28B1012801D0FA
:102480000420704700F028BA7047F8B507460C469C
:1024900015461E4603F01CFC3FB1012F0CD13246FD
:1024A0002946204600F020FA04E03246294620461C
:1024B00000F02AFD044600E0042403F021FC20463D
:1024C000F8BDF8B507460C4615461E4603F000FC5D
:1024D0003FB1012F0CD132462946204600F050FA78
:1024E00004E032462946204600F030FD044600E074
:1024F000042403F005FC2046F8BD70B506460C46E2
:10250000154603F0E5FB36B1012E0AD129462046D7
:1025100000F090FA03E02946204600F037FD04461B
:1025200000E0042403F0ECFB204670BD08B505F084
:1025300033FB4FF47A72002306F070FD08BDFFFFF5
:1025400010B5044605F0A2FC074BB0FBF3F00223E4
:10255000B0FBF3F2944202D3044A136110BDB3F509
:10256000807FF9D00233F3E740420F0000000340C0
:10257000044B9860DA68D206FCD4024B9868C0B26B
:10258000704700BF0000034070B5FFF7CFFF00F5B4
:10259000FA74FF20FFF7ECFF0025FF20FFF7E8FFAC
:1025A000FF28064605D0FFF7C1FFA94208BFA04299
:1025B000F3D3304670BDFFFF38B5064C4FF00075C1
:1025C000E561FFF7E1FF044AA561137843F00103D9
:1025D000137038BD20C0092006C007202DE97043C4
:1025E00006460D46FFF7A2FF643080464FF0000913
:1025F000FF20FFF7BDFFFF2808D1FFF797FF4945F0
:1026000008BF4045F4D30020BDE87083FE28FAD10E
:10261000102D06D900224FF40071304603F0F6FA6F
:1026200019E0341D0435FF20FFF7A2FF04F8040C65
:10263000FF20FFF79DFF04F8030CFF20FFF798FF32
:1026400004F8020CFF20FFF793FF043404F8050C94
:102650002B1BDE42E7D1FF20FFF78AFFFF20FFF7A9
:1026600087FF0120BDE8708370B506460D46FFF771
:102670008BFFFF28044619D12846FFF779FFFD2D6F
:1026800016D022464FF40071304603F0BFFA2046C0
:10269000FFF76EFF2046FFF76BFF2046FFF768FF4E
:1026A00000F01F00431F5842584170BD002070BD0C
:1026B000012070BD020638B504460D4607D500213D
:1026C0007720FFF7F7FF012838D804F07F041C4B70
:1026D0004FF000729A61DA61FFF756FFFF2801465A
:1026E00028D12046FFF744FF280EFFF741FFC5F32E
:1026F0000740FFF73DFFC5F30720FFF739FFE8B2BA
:10270000FFF736FF402C17D0482C14BF012087203C
:10271000FFF72EFF4C2C02D10846FFF729FF0A21B4
:10272000FF20FFF725FF030608D5013911F0FF014F
:10273000F6D138BDFF2038BD9520EEE738BD00BF8B
:1027400020C00920064A074913784969DBB24901CC
:1027500054BF03F0FD0343F003031370704700BF41
:1027600006C0072020C009202DE9F743FFF7EAFF44
:10277000564B1A781E4612F0020F01D01878A1E0CD
:102780000120FFF7DDFE0A24FF20013CFFF7F0FEE9
:1027900014F0FF04F8D14E4F4FF00073FB61214657
:1027A0004020FFF787FF012802D04FF0000875E0B6
:1027B000FFF7BCFE4FF4D57100F57A754820FFF79E
:1027C00079FF012841D10DF10408FF20FFF7D0FE69
:1027D00008F804000134042CF7D19DF80630012BD1
:1027E000E3D19DF80730AA2BDFD12C460025FFF757
:1027F0009DFEA94208BFA04206D3FFF797FEA9425B
:1028000008BFA042D1D207E04FF08041E920FFF796
:1028100051FF0028EBD1F0E700217A20FFF74AFFB3
:102820000028C2D10146FF20FFF7A2FE08F80100F0
:1028300001310429F7D19DF8043013F0400F14BF83
:102840004FF00C084FF0040828E02146E920FFF77C
:1028500031FF02282C4635BF4FF002084FF0010827
:102860004FF0E9094FF041090025FFF75FFEA9424B
:1028700008BFA0420BD3FFF759FEA94208BFA042F0
:102880000CD34FF400715020FFF714FF06E0002135
:102890004846FFF70FFF0028E7D1ECE70D4B83F820
:1028A00000804FF00073BB61B8F1000F07D03378A0
:1028B000182003F0FE033370FFF742FE01E0FFF73C
:1028C0007BFE3078C0B203B0BDE8F08306C00720BD
:1028D00020C0092018CF072008B5FFF733FF014BB0
:1028E000187808BD06C0072070B51446064608468D
:1028F000FFF728FF002C39D01E4B1B78DB0737D49D
:102900001D4B4FF00072DA611C4A1D46127812F01E
:10291000080F08BF4002012C01460CD15120FFF7DF
:10292000C9FEE0B94FF400713046FFF757FEB0FA28
:1029300080F4640913E05220FFF7BCFE78B94FF42D
:1029400000713046FFF74AFE28B1013C14F0FF0445
:1029500006F50076F3D100214C20FFF7ABFE4FF0D7
:102960000073201CAB6118BF012070BD042070BD36
:10297000032070BD06C0072020C0092018CF072003
:10298000F8B5144606460F46FFF7DCFE002C44D08F
:10299000254B1A78D20742D41B785B0741D4234BCE
:1029A0004FF00072DA61224A1D46127812F0080FC9
:1029B00008BF7F02012C0CD139465820FFF77AFE60
:1029C00018BBFE213046FFF74FFEB0FA80F46409D1
:1029D0001CE012F0060F03D02146D720FFF76AFE55
:1029E00039465920FFF766FE80B9FC213046FFF7D3
:1029F0003BFE28B1013C14F0FF0406F50076F4D14B
:102A0000FD210020FFF730FE00B901244FF00073D4
:102A1000201CAB6118BF0120F8BD0420F8BD0320C5
:102A2000F8BD0220F8BD00BF06C0072020C0092065
:102A300018CF07207FB50D46FFF784FE05281AD171
:102A40002B78012B00F0048103D3022B0BD0042040
:102A500001E1824B586910F0806440F0F980FFF783
:102A6000ABFD2046F7E07D4B5B6983F08063C3F3E9
:102A700080636B70ECE07A4B1B78DB0700F1EA8037
:102A80000E2800F2DF80DFE800F008124F53DDDD92
:102A9000DDDDDDDDAAAFB2BBCB00704B4FF00072C5
:102AA000DA61FFF771FDFF3818BF0120CBE000218C
:102AB0004920FFF7FFFD044608B10120C3E01021C3
:102AC0006846FFF78BFD0028F7D09DF800309DF891
:102AD00008109B09012B9DF8093006D1013303EB47
:102AE000012189B2890229606BE09DF807209DF8D9
:102AF0000500920002EB91119DF80620013192022F
:102B000002F4406211449DF80A2000F00F0000EB2F
:102B1000D2105A00023002F006028318DBB289B2EA
:102B2000093B01FA03F34BE04FF400732B8059E0AB
:102B30004C4E337803F0040303F0FF01F3B100219E
:102B4000CD20FFF7B7FD0028B7D1FF20FFF710FD1C
:102B500010216846FFF742FD0028AED03021FF204B
:102B6000FFF706FD481E10F0FF01F8D19DF80A306E
:102B700008461A09102393402B6064E04920FFF7B0
:102B800099FD0446002898D110216846FFF726FDDC
:102B9000002892D036789DF80A2006F0020606F04A
:102BA000FF009DF80B3076B1520002F07E0202EB7E
:102BB000D3135A1C9DF80D309B09013B02FA03F315
:102BC0002B6020463FE0D90001F01801C2F38402D7
:102BD00001EB5311531C01FB03332B6033E0214BFA
:102BE0001B782B7000202EE00021492001E00021FD
:102BF0004A20FFF75FFD00287FF45FAF10211AE045
:102C000000217A20FFF756FD00287FF456AF291DDA
:102C1000FF20FFF7ADFC05F8010B8D42F8D1E1E78D
:102C20000021CD20FFF746FD00287FF446AFFF20AE
:102C3000FFF79EFC40212846FFF7D0FCB0FA80F059
:102C4000400900E00420054B4FF000729A6102E059
:102C5000002000E0032004B070BD00BF20C00920A8
:102C600006C0072018CF0720054B1B78253BDBB299
:102C7000032B9ABF034A52F823000020704700BF7D
:102C80001CCF0720FC0402001B4B2DE9F0411D88DE
:102C90000646B5F5007F0F46144602D12A46214666
:102CA00013E0B5F5807F09D12A4621463846B04762
:102CB0002A4604F5807107F5807016E0B5F5047FAB
:102CC00005D1510A89024FF4007238460DE0B5F57E
:102CD000847F0ED1140A61024FF480723846B047E7
:102CE000611C4FF480724902B8183346BDE8F041C8
:102CF0001847BDE8F08100BF1ACF072030B52F4C30
:102D000003462546002958DD07291A782DDDA260E3
:102D10005A780839A2609A78A260DA78A2601A79A3
:102D2000A2605A79A2609A79A26003F10802DB7965
:102D3000A360A3695B07FCD5AB680370AB68437005
:102D4000AB688370AB68C370E368DB06FCD4AB6828
:102D5000083000F8043CAB6800F8033CAB6800F8AE
:102D6000023CAB6800F8013C1AE003291ADDA260BE
:102D70005A780439A2609A78A2601A1DDB78A360A1
:102D8000E368DB06FCD4AB68043000F8043CAB68B5
:102D900000F8033CAB6800F8023CAB6800F8013C6B
:102DA0001346AFE70133A2600139E268D206FCD4D2
:102DB000AA68013000F8012CA4E730BD00000340F0
:102DC00007B50B0C8DF805308DF807100B0A0421A0
:102DD0008DF804000DEB01008DF80630FFF78EFF33
:102DE00003B05DF804FBFFFFF7B5174606460E4C2F
:102DF00040250323E5618DF804300B0C8DF8053078
:102E00008DF807100B0A04210DEB01008DF8063038
:102E1000FFF774FF00223946304602F0F7FEA56145
:102E2000A561A56103B0F0BD00C009200E4B402292
:102E3000DA610E4BD7229A601A46D1680B4BC9064D
:102E4000FBD49A681A46FF219960D068C006FCD46A
:102E5000906810F0800FF7D0034B40229A61C0B207
:102E60009A619A61704700BF00C0092000000340CA
:102E7000F7B5FFF7DBFF1F4C002323801E4B1F4ECF
:102E800040271A889B78F7610321054601A8ADF811
:102E900004208DF80630FFF731FF9DF805209DF8DE
:102EA00006301F2AB7612146B761B7611CD1A3F173
:102EB0002502032A18D8124A252B137005F00100A9
:102EC00006D1002814BF4FF480734FF4847305E0DB
:102ED000002814BF4FF400734FF404730B80FFF706
:102EE000C3FE084B400A18600888B0FA80F0400919
:102EF00003B0F0BD1ACF0720F204020000C0092081
:102F00001CCF072020CF0720F8B58B1817460D4A95
:102F1000013B12680446934210D84D02FFF786FF2A
:102F200000262D1BBE4204EB050209DA21460648A5
:102F3000FFF7AAFE04F500740136F3E70120F8BD9F
:102F40000020F8BD20CF0720E92D0100F8B58B182F
:102F500017460C4A013B126893420FD804460026DC
:102F6000C0EB4125BE4204EB050209DA21460648C2
:102F7000FFF78AFE04F500740136F3E70120F8BD7F
:102F80000020F8BD20CF07206D30010008B50728CC
:102F900005D8DFE800F006090E12141414140420FA
:102FA00008BDFFF743FF0AE0FFF75EFE400A086036
:102FB00005E04FF400730B8001E001230B6000205B
:102FC00008BDFFFF70B590B003466A466E4600F13B
:102FD0004005144618685968083303C4AB422246BA
:102FE000F7D1084D4024EC6100219B20FFF7E8FE5B
:102FF00021463046FFF782FEAC61AC61AC6110B097
:1030000070BD00BF00C0092070B50646074D4024C2
:1030100000217720EC61FFF7D3FE21463046FFF711
:103020006DFEAC61AC61AC6170BD00BF00C0092039
:1030300008B5064B198831F01F0104D0FFF714FEC4
:10304000B0FBF1F008BD084608BD00BF1ACF07204D
:10305000014B1888704700BF1ACF0720024B187821
:10306000003018BF012070471ACF07202DE9F74321
:103070004FF0FF330F46914601938046FFF7D6FE8F
:10308000FFF7ECFF0646B8B1194C4025194BE56136
:103090001B880320B3F5847F0CBF4FF480714FF47D
:1030A00000713943FFF78CFE04210DEB0100FFF79F
:1030B00025FEA561A561A5610D4C402339468220FE
:1030C000E361FFF77DFE01224946404602F09EFD86
:1030D0003EB1019B02A8013340F8043D0421FFF7F3
:1030E0000DFE4023A361A361A36103B0BDE8F0839B
:1030F00000C009201ACF072037B5084B084C1868C4
:10310000402504210190E5610DEB0100FFF7F6FD7C
:10311000A561A561A56103B030BD00BFF504020043
:1031200000C009201FB501A802F09EFC9DF80830E0
:103130009DF8092003F01F0302F00F021B0443EA6D
:1031400042519DF806309DF8040003F01F0341EA48
:10315000C3229DF80530C0F3440003F03F0342EA68
:103160004313BDF80A201843520602F108421043E7
:1031700005B05DF804FB30B504460D1F131B034476
:10318000032B04D955F8043F44F8043BF6E79408B0
:10319000A3001944A2EB8402013B18440A44914263
:1031A00004D011F8013B00F8013FF8E730BD0244BC
:1031B000904202D000F8011BFAE7704700F10B01C2
:1031C0000023DA0142EA530310F8012B134488422A
:1031D00003F0FF03F5D118467047036810B50446A5
:1031E000B3B119460A4611F8010B1F2802D93A2833
:1031F000F8D101E0002010BD591C8A4208D11B788B
:10320000303BD9B2012903D801321846226010BDE3
:103210004FF0FF3010BD03692DE9F04101F10902C3
:103220000D4663B3416900244E1E2E2716F8013F58
:103230000134202B19D0052B48D0092C01D117704F
:103240000132A3F1410EBEF1190F0CD8082C91F8F0
:103250000CE08CBF4FF0100C4FF0080C1CEA0E0F66
:103260001CBF2033DBB2137001320B2CDED1CB7AC2
:103270002B72CB692B600B8BAB80CB8AEB8000244D
:103280001470AE693EB303690BB900241AE0EB6910
:10329000002BFAD04FF6FF73028C9A42F5D0D0F88B
:1032A0001C80771E38F8140060B10021FFF774F815
:1032B0000028EAD0EB69013B9C42E6D2013407F8D2
:1032C000010FEFE700233355BDE8F081092C4FF0E3
:1032D000E503C8D1B3E7BDE8F081F8B5056B00F1AF
:1032E0003407044601232A4639464078FFF7E9F8B7
:1032F000A0B9636AE269EB1A9342207101D30020FE
:10330000F8BDE678012EFAD9E36939461D442A460C
:1033100001236078FFF7D5F8013EF3E70120F8BDFF
:1033200003790BB1FFF7D9BF1846704770B5044653
:10333000FFF7F6FF054680BB2378032B25D1637981
:10334000012B22D104F1340601464FF400723046BD
:10335000FFF72DFF4AF65522A4F832220F4A3146D4
:10336000626302F1FF5202F500522032C4F81822C3
:1033700062696078C4F81C222269C4F82022226A9B
:1033800001322263FFF79DF86571002211466078D3
:10339000FFF7B3F8003018BF012070BD52526141F1
:1033A000036B70B58B4205460E4610D0FFF7B8FF91
:1033B000044608B101240BE00123324605F1340133
:1033C0006878FFF762F80028F4D12E6300E000244B
:1033D000204670BD002310B503714FF0FF33036327
:1033E0000446FFF7DDFFA0B94AF65523B4F83222B0
:1033F0009A4210D1D4F86A30084A23F07F439342AE
:103400000AD0D4F8860020F07F40801A18BF01202F
:1034100010BD032010BD022010BD00BF4641540066
:103420002DE9FF4100230360074608461546FFF7D4
:10343000D4FE061EC0F2FA80854B53F82640002CBD
:1034400000F0F680E068FEF7E3FF002800F0F2806D
:103450003C60237883B16078FFF70FF8C1070BD485
:10346000002D00F0E98000F0040303F0FF00002BC2
:1034700000F0EB800A20E8E00023F0B223706070D7
:10348000FEF7E8FFC20700F1D9800DB14307F1D480
:1034900000212046FFF79EFF01281CD12146002273
:1034A00091F8F6310BB1D1F8FA314DF822300132F2
:1034B000042A01F11001F3D100265DF826502DB148
:1034C00029462046FFF786FF08B90BE002200136A7
:1034D000042EF2D100E00025032800F0B18008B1ED
:1034E0000D20B2E0B4F83F30B3F5007FF8D1B4F866
:1034F0004A6006B9A66D94F844E0E6610EF1FF3328
:10350000012B84F803E0EBD894F84130A370002B32
:10351000E6D05A1E1A42E3D1B4F845C01CF00F0F92
:10352000A4F808C0DCD1B4F8472002B9626DB4F841
:1035300042100029D4D006FB0EFE01EB1C17774485
:10354000BA42CDD3D21BB2FBF3F3002BC8D040F666
:10355000F572934203F1020005EB01022F4410D9EA
:103560004FF6F5718B426DD9A06125626262E76208
:10357000BCF1000FB4D1236E4FF00308A3628300A7
:1035800018E04FF00108A06125626262E762BCF1B9
:10359000000FA5D0B8F1020F4FEA400318BF1B1867
:1035A000724418BF00F00100A2621CBF00EB53037D
:1035B0004FF0010803F2FF13B6EB532F90D34FF0F7
:1035C000FF3363612361B8F1030F4FF08003637130
:1035D00022D1B4F86430012B1ED1691C2046FFF7BC
:1035E000DFFEC8B94AF65523B4F8322260719A4218
:1035F00012D1626B174B9A420ED103F1FF53D4F8EC
:10360000182203F5005320339A4201BFD4F81C322C
:103610006361D4F8203223610F4A84F80080138854
:10362000002001339BB21380E3800EE00B200CE0FE
:103630000C200AE00F2008E0284606E0032004E002
:10364000012002E04FF002089DE704B0BDE8F081E0
:1036500028CF07205252614124CF072010B50446DD
:10366000A8B103689BB11A788AB1D988828891423F
:103670000DD1D868FEF7CCFE58B123685878FEF714
:10368000FCFE10F0010F14BF0320002010BD092024
:1036900010BD0F2010BD50B10F2905D84FF41A43AB
:1036A00023FA01F1CB0702D4C068FEF7C4BE70470D
:1036B00083690239023B99423DBF8378C06A01FBAE
:1036C0000300002070470129F8B507460C464BD986
:1036D0008369994248D20378022B29D0032B34D036
:1036E000012B41D101EB5106416A01EB5621FFF755
:1036F00057FE10B14FF0FF30F8BD796AC6F30803EA
:1037000001363B4401EB5621384693F83450FFF71D
:1037100047FE0028EED1C6F308063E4496F8340072
:10372000E30745EA00204CBF0009C0F30B00F8BDD9
:10373000416A01EB1421FFF733FE0028DAD1630060
:1037400003F4FF73FE18B08EF8BD416A01EBD4118B
:10375000FFF726FE0028CDD1A40004F4FE743C44FB
:10376000606B20F07040F8BD0120F8BD70B50446D4
:1037700082680D46012AE18001D1022070BD0368F4
:1037800099698A42F9D252B91978032901D1996A03
:1037900021B919898D42F0D2986A15E00A469E78BF
:1037A0003601B542114620680CD3FFF78CFF431C4D
:1037B000024618D00128E0D923689B699842DCD2E0
:1037C000AD1BEEE7FFF774FFE2600028D5D0236859
:1037D00000EB1510343305F00F0503EB45152061A0
:1037E0006561002070BD012070BD0129F8B5054656
:1037F0000C46164660D9836999425DD20378022B44
:1038000039D0032B43D0012B52D101EB5107416A30
:1038100001EB5721FFF7C4FD00284AD1C7F3080385
:1038200014F001042B4417BF93F83420F2B202F0D5
:103830000F0132011CBF02F0F0020A4383F834206A
:10384000696A013701232B7101EB57212846FFF7E5
:10385000A7FD70BBC7F308072F4414B1C6F30716C2
:1038600006E097F83430C6F3032623F00F031E4317
:1038700087F834601DE0416A01EB1421FFF790FDE9
:10388000B8B9640004F4FF742C44A68611E0416AC0
:1038900001EBD411FFF784FD58B9A40004F4FE74C1
:1038A00030342C44636803F070431E43666000E0CC
:1038B000022001232B71F8BD0220F8BDF8B50546A2
:1038C0000F4631B9066996B183699E4228BF012629
:1038D0000EE0FFF7F8FE01283FD9441C02D14FF05B
:1038E000FF30F8BDAB69984238D33E4600E0012670
:1038F0003446AB6901349C4204D3012E01D8002028
:10390000F8BD022421462846FFF7DDFE30B1411CF8
:10391000E5D0012821D0B442EBD1F0E76FF070423E
:1039200021462846FFF761FFA8B957B96B692C619A
:103930005A1C0ED0013B6B616B7943F001036B7134
:1039400007E0224639462846FFF74FFF0028EDD012
:1039500001E02046F8BD0128C1D00120F8BD2DE9C5
:10396000F843C68804460136B3B20F4613B90420A3
:10397000BDE8F8830369002BF9D016F00F0859D180
:10398000C16801330361006819B903899E42EED210
:1039900050E08378013B13EA16134BD1FFF793FEF7
:1039A0000128054602D80220BDE8F883421C02D156
:1039B0000120BDE8F883206883699D4234D3002F3D
:1039C000D5D0E168FFF77AFF054600283BD00128F3
:1039D000E9D0431CECD02068FFF7A2FC0746002882
:1039E000E6D120684FF4007239463430FFF7DFFB30
:1039F000226829461046FFF75BFE4FF0010910636D
:103A000023689A7897420CD283F804902068FFF7D5
:103A100087FC0028CCD122680137136B0133136374
:103A2000EEE71A6BD71B1F63E56029462068FFF796
:103A30003FFE20612368E680343303EB4813636163
:103A40000020BDE8F8830720BDE8F8832DE9F74F93
:103A50004FF6FF794FF0FF0806464446A0F8209045
:103A600031693068FFF79CFC00287BD175692B78A1
:103A7000002B6ED0E52B60D0E97A0F0701F03F02F2
:103A800002D50F2A59D101E00F2A42D1D6F81CB035
:103A9000BBF1000F56D0580605D503F0BF04F388DC
:103AA0006A7B338402E0A3424BD1424695F80D80F5
:103AB000904545D12F78012027F040077B1E0D2728
:103AC0005F434FF0000A294B1AF80320AA5A88B125
:103AD0001046FEF77FFC7F2F019032D87A1C3BF80E
:103AE00017000092FEF776FC0199814229D1009AD5
:103AF000174601E04A4524D10AF1010ABAF10D0F37
:103B0000E1D12B7859062AD548B33BF8173033B3A7
:103B100017E024B92846FFF751FB40451BD0B36995
:103B2000DA7AD20709D405F10B00854215D015F8D1
:103B3000011B13F8012B9142F7D0A6F8209000E06A
:103B40009046FF2400213046FFF709FF002887D068
:103B500008E0042006E0204604E0002002E0013CEA
:103B6000E4B2EFE703B0BDE8F08F00BFE605020066
:103B70002DE9F74F0B7807462F2B884601D05C2B99
:103B800001D108F101080024BC6098F800301F2B17
:103B900062D821463846FFF7E9FD7C6113E1013127
:103BA0003BF81120202AFAD02E2AF8D009B144F08F
:103BB00003044A4632F8020D2E2801D0013EF9D105
:103BC0004FF0000A55464FF008093BF811004A1C17
:103BD000002840F08F80BB691A78E52A04BF0522CF
:103BE0001A70B9F1080F04BFAD00EDB205F00C0377
:103BF0000C2B00F0CC8005F00302032A00F0C780F4
:103C0000A10709D405F00305012D08BF44F01004F5
:103C1000042B08BF44F00804BB690021DC7238465D
:103C2000FFF7A4FD10B93846FFF710FFBB69DB7A38
:103C3000002840F0AF805A0700F1C5807A69D37A36
:103C4000DB0640F1AE803968538B0978032904BF45
:103C5000928A43EA0243BB6098F8003044462F2B17
:103C600008F10108F8D05C2BF6D0D7F81CB004F1AD
:103C7000FF39ABF10205002619F8010F06F1010822
:103C80001F281AD92F2818D05C2816D0B8F1810F18
:103C900000F093800121FEF77FFB002800F08D806B
:103CA0007F2806D8494911F8012F12B19042FAD164
:103CB00083E025F8020F4646DEE72028A0440BEB00
:103CC000460234BF04240024002E76D032F8021DB0
:103CD000202901D02E2901D1013EF5E70025202120
:103CE0002BF816500B22B869FFF761FA0BEB460967
:103CF000294655E7202803D02E2805D1B24208D006
:103D000044F00304114660E7CA4504D2B24218D118
:103D100055E0CA4553D3B9F10B0F04D144F0030465
:103D20004FF00B0957E7B24203D044F003043FF6CB
:103D300052AFAD00EDB232464FF00B094FF0080A1A
:103D4000E0E77F280CD900210192FEF725FB019ABC
:103D500018B11F4B184410F8800C44F0020428B12D
:103D60001C4B13F8011F29B18842FAD144F0030417
:103D70005F2006E0A0F1410189B2192913D845F06E
:103D80000205B96901F80A000AF1010ABAE744F02C
:103D9000020435E7042816D113F0040F08BF0520EC
:103DA00011E005200FE0A0F1610189B219299EBF41
:103DB000203845F0010580B2E3E7062003E0B9F1C1
:103DC0000B0FB6D1AAE703B0BDE8F08F21050200C2
:103DD000660502002A0502002DE9F047846986B0D5
:103DE0000C22C669054621460DEB0200FFF7C3F918
:103DF0009DF81730DB0762D50023E3720127EB61E2
:103E00000B2203A92046FFF7B6F9052F01D83B4640
:103E100015E03B46B01E30F8022F82B1102102F0AF
:103E2000010E0EEB430313F4803F1CBF83F4883371
:103E300083F0210301394FEA5202F0D1EBE7072268
:103E400003F00F0000F13001392988BF00F137017C
:103E5000013A01A810441B094170F1D106A97E2046
:103E6000114401F8140C9A4204D0E15C202901D0DD
:103E70000133F8E72344072A9DBF06A9891811F8E2
:103E8000141C202103F8011BA3EB040198BF01328D
:103E90000729F0D900212846FFF768FC40B92846D9
:103EA000FFF7D4FD20B90137642FA9D107209FE087
:103EB000042840F09D809DF81730E372EE619DF874
:103EC00017309B070AD5002436F814300BB10134A3
:103ED000FAE719340D23B4FBF3F400E001240021C8
:103EE0002846FFF743FC00287FD106462969286849
:103EF000FFF756FA002878D16B691B78E52B00D0C4
:103F00002BB90136B44203D1013C53D007E0064639
:103F100001212846FFF723FD0028E7D065E0E98866
:103F20002846091BFFF722FC002861D1A869FFF78A
:103F300045F90646DFF8C0800F2729692868FFF792
:103F40002FFA0346002853D16A695FFA84FED5F838
:103F50001CC00EF1FF31107350830D2041434FF60A
:103F6000FF7918465673D772484518BF3CF81100C0
:103F700013F808A003F1010318BF013122F80A0069
:103F8000002808BF48460D2BEED14FF6FF7398422C
:103F900002D03CF811300BB94EF0400E82F800E030
:103FA0002B6801221A7100212846FFF7D8FCF8B9C6
:103FB000013CC2D129692868FFF7F2F9044690B99B
:103FC000202221466869FFF7F2F80B22A969686987
:103FD000FFF7D1F8AB696A69DB7A03F01803137352
:103FE0002B6801221A71204602E0042808BF07202E
:103FF00006B0BDE8F08700BFE60502002DE9F041FC
:10400000FF263446364F05460420296900295AD038
:104010002868FFF7C5F9002856D168690378002B96
:1040200059D0E52B47D02E2B45D0C27A02F03F0263
:10403000082A40D00F2A34D1590605D503F0BF0411
:10404000EB88427B2B8402E0A34234D13246467B8C
:1040500096422FD14FF6FF780378D5F81CE003F095
:104060003F035A1E0D2353434FF0010C0022D15D34
:10407000415ABCF1000F06D07F2B1CD82EF813102C
:104080008C46013301E0414515D101320D2AEED1B4
:10409000027852061CD57F2B0DD800222EF8132053
:1040A00016E01CB9FFF78AF8B04216D04FF6FF733E
:1040B0002B8412E01646FF2400212846FFF74FFC10
:1040C0000028A2D000E040B100232B61BDE8F081C0
:1040D000013CE4B2F0E70420F6E70020BDE8F081FF
:1040E000E6050200012970B504460D4601D80220FC
:1040F00070BD83699942FAD2A3699D4205D22946CF
:104100002046FFF7E0FA064608B9002070BD0128F6
:10411000EDD0411C10D0002229462046FFF765FB58
:1041200058B963695A1C05D001336361637943F060
:10413000010363713546DFE7012070BDF0B585B03E
:10414000019004A840F8041D00911646FFF745F8B9
:10415000041E2ADB174B53F824501F463DB1E86874
:10416000FEF754F908B9022022E000232B700199D0
:1041700021B9019847F8240048B919E0002301F853
:104180000C3BE0B2FEF738F90028ECD0F1E7012E45
:104190000DD10022694601A8FFF742F90446014605
:1041A0000198FFF778FA204602E00B2000E000209B
:1041B00005B0F0BD28CF07202DE9F043D1B0019123
:1041C00090460546002800F085800023036002F039
:1041D0001E0201A906A8FFF723F90646002873D19D
:1041E00003AB0C9301990FAB06A80D93FFF7C0FC2E
:1041F0000B9C10B9002C08BF062018F01C0F08F00B
:104200001F073CD050B1042802D106A8FFF7E4FDF7
:1042100047F00807002864D10B9C06E0E37A13F00E
:10422000110F5DD118F0040F56D1380735D5FEF7C0
:1042300079FF0023C4F80E000698E372E361027868
:10424000B4F81A80032A08BFA28A6383A38208BF36
:1042500048EA024801230371B8F1000F1BD0414620
:10426000D0F83090FFF73EFF00283AD1069808F1C9
:10427000FF3303614946FFF793F850B131E000285E
:104280002FD1E37AD90629D418F0020F01D0DA072A
:1042900026D43B0701D547F02007069B1A6BAF7168
:1042A000EA610022EA712C621978628B032904BF4B
:1042B000A18A42EA01422A61E2692B60DB88EA6056
:1042C0000022AA60AA61AB8006983146FFF7E3F9A5
:1042D000304608E0092006E0082002E0042000E063
:1042E00007200646F0E751B0BDE8F0832DE9F74F0F
:1042F0009A460023CAF80030054688461446FFF760
:10430000ADF9064628B101462868FFF7C4F93046E2
:10431000A1E0E97921B12868FFF7BDF9E8799AE0D1
:10432000AB79D80705D428680721FFF7B4F907202F
:1043300091E0EB68A86805F1240B181A844228BFA5
:104340000446002C00F08280AA68C2F30803002B08
:1043500063D128688378013B03EA522313F0FF03FB
:104360000ED10AB9286904E069690193FFF7ABF936
:10437000019B012801D802244CE0411C49D068610E
:10438000D5F80090696948460193FFF791F9019BC0
:1043900020B90224EC712146484659E0660A00EB38
:1043A00003071DD099F802209919914288BFD61AA7
:1043B000F3B23A46414699F80100FEF766F840BB71
:1043C000AB795A060AD5A869C01B864206D94FF4B4
:1043D0000072594608EB4020FEF7CDFE76022AE037
:1043E000AA69974218D0AB795B060AD501235946D2
:1043F00099F80100FEF765F858B9AB7923F040034E
:10440000AB71286801233A4659464078FEF73DF8DB
:1044100010B10124EC7119E0AF61A9684046C1F305
:104420000801C1F50076A64228BF26462944324637
:104430002431FEF7A0FEAB68B0443344AB60DAF839
:104440000030A41B3344CAF800307AE721462868BC
:10445000FFF721F9204603B0BDE8F08F2DE9F74FB3
:104460009B460023CBF80030044689469046FFF770
:10447000F5F80546002867D1E17921B12068FFF7FA
:104480000AF9E079B8E0A379990705D420680721F3
:10449000FFF701F90720AFE0A36813EB080F49D23B
:1044A00004F1240301932EE05FEA582500EB060790
:1044B00074D09AF8023072199A4288BF9D1BEBB2F1
:1044C0003A4649469AF80100FDF7FBFF002874D1EF
:1044D000A169C91B8D420AD94FF4007209EB412131
:1044E0000198FEF748FEA37923F04003A3716D0203
:1044F000A368A9442B44A360DBF80030C5EB08088F
:104500002B44CBF80030B8F1000F13D0A368C3F3ED
:104510000802002A54D120688678013E06EA532614
:1045200016F0FF061ED1ABB9216949B9FFF7C6F9EC
:10453000014628B9A368E268934254D9E36052E087
:10454000012909D10225E57129462068FFF7A3F862
:10455000284651E06169E9E74A1C2ED02369616170
:1045600003B92161A3795B060BD520680123A269F9
:1045700001994078FDF7A5FFF8B9A37923F040032E
:10458000A371D4F800A061695046FFF791F80028A4
:104590008AD10225E57129465046D7E7A3699F4293
:1045A0000DD0A268E3689A4209D201233A460199E4
:1045B0009AF80100FDF769FF08B10125C3E7A7617B
:1045C000A0684946C0F30800C0F50075454528BFFE
:1045D000454620442A462430FEF7CDFDA37943F01A
:1045E0004003A37184E7A379206843F02003A371FB
:1045F0000021FFF750F8002003B0BDE8F08F70B540
:104600000446FFF72BF80546002838D1A3799A060F
:1046100035D55B0612D520680123A26904F1240177
:104620004078FDF74EFF28B120680121FFF733F8ED
:10463000012070BDA37923F04003A371E1692068D4
:10464000FEF7AEFE0546D0B9266AF37A43F02003A2
:10465000F372E368F361236973831B0CB382FEF783
:1046600061FD7582C6F81600A379012223F02003AC
:10467000A37123681A712068FEF758FE054620686A
:104680002946FFF708F8284670BD38B50546FFF7FC
:10469000B6FF044648B92846FEF7E0FF044620B9B5
:1046A000286821462C60FEF7F6FF204638BD70B51D
:1046B00004460E46FEF7D2FF054670BBE17921B1F4
:1046C0002068FEF7E8FFE07970BDE368B34204D2EA
:1046D000A27912F0020F08BF1E460022A368A26052
:1046E000002E7AD0206885786D026BB1013B721E76
:1046F000B2FBF5F2B3FBF5F18A4205D36A421340EF
:10470000A360F61A616912E0216979B9FFF7D6F85A
:104710000128014607D10225E57129462068FEF7E8
:10472000BAFF284670BD013054D021616161B1B932
:1047300000262FE0A37920689A0713D5FFF7BEF86B
:10474000014698B14B1C45D00129E4D923689B69E7
:104750009942E0D2A36861612B44A360761BAE420C
:10476000E8D804E0FEF7AFFF0146EBE72E46A3686A
:104770003344A360C6F30803002BD9D02268104647
:10478000FEF796FF20B90225E57129461046C6E7D7
:1047900000EB5626A368C3F30803F3B1A26996425F
:1047A0001BD0A37904F1240513F0400F0AD0206830
:1047B000012329464078FDF784FE58B9A37923F0F8
:1047C0004003A37120680123324629464078FDF753
:1047D0005CFE08B101259FE7A661A368E268206836
:1047E000934284BFE360A3794FF0000184BF43F09C
:1047F0002003A371FEF74FFF002070BD30B5C9B094
:1048000001910546002833D0002201A903A8FEF734
:1048100007FE044620BB039B01992B6004ABAB61F0
:1048200007ABEB612846FFF7A3F9044628BB6B6989
:104830005BB1DA7AD20612D503995A8B097803292B
:1048400004BF9B8A42EA0342AA60039B0021DB88E3
:104850002846AB80FEF78AFF042804460AD10524C7
:1048600000232B6003982146FEF715FF204607E042
:10487000092005E0002CF5D0F2E70428EFD0EFE79F
:1048800049B030BD70B5C4B004460E46FEF7E6FE32
:104890000546F8B926B901462046FEF767FF18E03D
:1048A00003ABC4F818D0E3612046FFF7A7FB042848
:1048B00001D1256100E060B931462046FEF7ABFC2E
:1048C00000212046FFF74BF8042802D10023236182
:1048D00000E0054620682946FEF7DDFE284644B084
:1048E00070BD2DE9F347144602AB43F8040D88462A
:1048F000204600221946FEF793FD2468054600284D
:104900004CD1A7696369BA1E934202D8C8F8003037
:1049100044E094F80090B9F1010F10D10646022747
:1049200039462046FEF7CFFE431C2BD001282BD062
:1049300000B90136A36901379F42F1D327E003464E
:1049400002460646616A52B9204601F1010AFEF7A5
:1049500027FDD8B9514604F134034FF40072B9F180
:10496000020F05D1188800B901360233023A06E079
:10497000186820F0704000B901360433043A013F52
:10498000E1D104E0012502E0022500E0054663795B
:10499000666143F001036371C8F800602046294650
:1049A000FEF779FE284602B0BDE8F0872DE9F04F0A
:1049B00089B008AB43F80C0D18460E461546FEF7B5
:1049C0000CFC0028C0F20882012E00F207826B1E48
:1049D0002B4040F00382BF4A52F82040002C00F0E8
:1049E000FF81C7B223703846FDF734FDC20700F1DE
:1049F000F981430700F1F88107AA01213846FDF744
:104A00007CFD08B1012040E207997F29FAD9002EE8
:104A100014BF4FF0000A4FF03F0ACAEB01010791A3
:104A20006DB94FF4FA63B1FBF3F3AB4830F81520DE
:104A3000934201D20135F9E7A84B33F815506D0ABE
:104A400003D0812D28BF802500E00125B1FBF5F3BF
:104A500040F6F572934240F203824FF6F5729342AC
:104A600040F20E829B0003F207235B0A01930023AE
:104A70004FF0030803934FF0200B0BEB0A03029354
:104A8000039A019B03EB0209029B9944CAEB0503BD
:104A90004B44994201D20E20F7E106AA0321384681
:104AA000FDF72BFD20B9069B013BB3F5004F01D369
:104AB00001230693069AB8F1030F02F1FF334B442A
:104AC000C2F1000203EA0203C9EB0303069304D117
:104AD000029A9B441A44029202E0019A1A440192FB
:104AE000079A0199CBEB02035B1A0399B8F1020F05
:104AF000A3EB0103B3FBF5F3049305D140F6F57383
:104B000004999942C7D916E0B8F1030F05D14FF6C1
:104B1000F573049A9A42BED982E1B8F1010F0AD125
:104B2000B2F5803F34BF4FF001094FF00609002E67
:104B300040F05C8107E0B2F5803F34BF4FF00409DC
:104B40004FF00609BEBB04F134064FF40072002199
:104B50003046FEF72CFB43F6C160DDF81CE0FE2179
:104B600084F8F7110AEB0E01B1FBF0F18808069109
:104B700084F8F9113F21C4F8FA114AF655210123AE
:104B800040F03F00002284F8F801A4F8321284F8C3
:104B9000F33184F8F43184F8F52184F8F691C4F8FF
:104BA000FEE131463846FDF78CFC00287FF42AAF41
:104BB0004FF0F80901E04FF0F00904F134064FF42A
:104BC000007200213046FEF7F2FA0B2244493046CB
:104BD000FEF7D1FA4FF40073B8F1030FA4F83F3099
:104BE0004FF0010384F8443084F84150A4F842B0F7
:104BF0000CBF00234FF40073A4F84530079B84F8E2
:104C00004990B3F5803F34BFA4F8473063653F2334
:104C1000A4F84C30FF23A4F84E30C4F850A0FEF79F
:104C200081FAB8F1030F069016D1019BC4F8770002
:104C3000A365022323660123A4F864300623A4F8A5
:104C40006630802384F87430292384F87630132268
:104C5000244904F17B000FE0BDF804302249A4F898
:104C60004A30802384F858302923C4F85B0084F844
:104C70005A30132204F15F00FEF77DFA4AF65523FD
:104C80005246A4F83232314601233846FDF719FC6A
:104C900000287FF4B7AEB8F1030F06D101230AF163
:104CA000060231463846FDF70CFC4FF40072002135
:104CB0003046FEF77CFAB8F1030F19D00B4BB8F170
:104CC000010F18BF6FF0FF0343EA09030693636304
:104CD00018E000BF28CF0720F40502000C050200F1
:104CE000320502003E0502005205020000FFFF00EF
:104CF00069F0FF03069363634FF0FF33A3636FF024
:104D00007043E363029B314603F10109029A0123D8
:104D10003846FDF7D6FB014600287FF473AE4FF40A
:104D200000723046FEF743FA01230693069B019A70
:104D30009A420FD901234A463146384609F1010B00
:104D4000FDF7BFFB00287FF45DAE069BD94601331B
:104D50000693EBE7039B4A46B8F1030F18BF1D46C5
:104D60004D4401233146384602F1010BFDF7A9FB02
:104D700000287FF447AEAB455A46F2D1B8F1030F95
:104D800021D1434B3146636303F1FF5303F50053D5
:104D90002033C4F81832049B3846013BC4F81C3257
:104DA0000223C4F820324AF65523A4F832320123F4
:104DB0000AEB0302FDF785FB01230AF107023146E6
:104DC0003846FDF77EFB002211463846FDF795FB7D
:104DD000003018BF012058E00B2056E0132054E0AB
:104DE0000C2052E0032050E00A204EE004F134068B
:104DF0004FF4007200213046FEF7D9F90B22254905
:104E00003046FEF7B8F94FF40073A4F83F3084F849
:104E10004150A4F842B084F844804FF0F009EBE62A
:104E2000DEB104F134064FF4007200213046FEF783
:104E3000BEF90B2217493046FEF79DF94FF4007377
:104E4000A4F83F30012384F8443084F84150A4F89A
:104E500042B04FF0F0090023CEE64FF00C0972E6A5
:104E600003EB430301335B0803334FF0010803F204
:104E7000FF135B0A0193202303934FF0010BFCE522
:104E800002335B004FF00208F1E709B0BDE8F08F94
:104E90005252614132050200F8B50D4616461F46D2
:104EA00008B90120F8BD0029FBD00468002CF8D017
:104EB000069B3A4631462068A84708B16468F5E782
:104EC000F8BDFFFFF0B50024ADF50D7D0D4607469A
:104ED000029402F061FE4FF47A72002304F09EF80F
:104EE0004FF409720646214603A804F0BEFBDDB16B
:104EF00012221D4903A8FFF75FF9044680B90699FD
:104F000003A8FFF7D4FB044630B902AB2A46394662
:104F100003A8FFF7A3FA044603A8FFF7B6FB04E0D3
:104F2000124805F02FFD00E02C4602F035FE4FF44C
:104F30007A72002304F072F80D4B801B1A8890429D
:104F4000029A88BF188095420CBF0126002606D021
:104F5000059B2146009307482B4605F013FD30467C
:104F60000DF50D7DF0BD00BF0A060200140602001B
:104F700034CF0720280602002F4B2DE9F74F1D687C
:104F8000DFF8BC902E46DFF8BCA005F5806802AFC4
:104F9000002347F8043D4EF660223946D9F8000058
:104FA00001F094FD08B1019B2BB9711B2846FFF756
:104FB00089FF2E46EBE7D9F8000001F053FEBAF85E
:104FC0000030019C0130984288BFAAF800002046BA
:104FD00006F016F80A23235400F1010B019A002170
:104FE00006EB0B0402F80B10A045019916D8C6EB8E
:104FF0000802304604F013FBC8EB04044FF4806150
:105000002846FFF75FFF3CB10199C4EB0B03224632
:105010001944284604F003FB2C4403E05A4630466A
:1050200004F0FDFA054800234FF0FF3239460068CE
:1050300001F046FC2646AAE738CF07203CCF0720E0
:1050400030CF072040CF07202DE9FF412D4D80466E
:105050002C68002C52D14FF48060039404F0A0FA25
:10506000294E286040B92868002833D004F0A0FAFF
:10507000244B00221A602DE0224604210A2001F070
:10508000FDFB224F2246386004210A2001F0F6FB86
:105090003B683060002BE6D00028E4D00A2496203C
:1050A00004F07EFA03900028DDD000231A4603A9FD
:1050B000306801F005FC013CF1D10194CDF800808D
:1050C00023464FF4C0721249124801F051FE0028E5
:1050D000C9D013E033681BB90F4805F0C5FC0DE0DB
:1050E0000A2400231A4603A9306801F0EFFC10B12E
:1050F000039804F05DFA013CF3D1EDE704B0BDE89C
:10510000F08100BF38CF07203CCF072030CF0720E9
:105110005B060200794F01006206020010B50446EA
:1051200002F0D2FA013C14F8010F10B102F03CFF7A
:10513000F9E7BDE8104002F0D7BA0FB470B5C2B0BD
:1051400046AC54F8046B4FF480752A46002102A83F
:1051500004F08BFA23463246294602A8019407F050
:10516000C7F8044602A8FFF7D9FF204642B0BDE8C1
:10517000704004B0704713B500230C4602A941F8F3
:10518000043D006801F070FC019B1BB1236843F0F3
:1051900001032360012002B010BD30B5044685B084
:1051A00001A80D4600F060FC9DF80630227903F05E
:1051B0001F039A421BD19DF80530627903F03F032B
:1051C0009A4214D19DF80430A27903F03F039A4229
:1051D0000DD104A9002341F8103D2368186801F09F
:1051E00043FC009B1BB12B6843F001032B600120A3
:1051F00005B030BD30B5244A87B01378234C43F056
:1052000001031370002503A8029500F02DFC2B4626
:10521000009502AA1E492068FFF73EFE9DF80C305B
:1052200013F03F031BD1009302AA19496068FFF7EE
:1052300033FE9DF80D3013F03F0310D1009302AA06
:105240001349A068FFF728FE9DF80E3013F01F03E6
:1052500005D1009302AA0E49E068FFF71DFE002366
:105260000C48009302AA0C490068FFF715FE029B48
:105270003BB10A4B4FF080521A60BFF34F8FBFF320
:105280006F8F07B030BD00BF0040024044CF072001
:105290007751010054CF07209B51010004ED00E03D
:1052A000936810B4013B002B936008DA9469A34221
:1052B00002DBCBB20A2B02D110BC07F027B813686F
:1052C000581C10601970C8B210BC70470A4B70B5FA
:1052D0001B780D467BB1094E441E14F8011F21B105
:1052E00030688268FFF7DCFFF7E725B12846BDE8A4
:1052F000704005F0B9BB70BD58CF072038C10720FA
:1053000070B50C460B4E451E15F8011F21B13068D3
:105310008268FFF7C5FFF7E724B12046BDE870407B
:1053200005F0A2BB034B0A211868BDE870408268F3
:10533000FFF7B6BF38C107203E4B2DE9F3411A688D
:10534000036904469A4236D100273D4600213A4877
:10535000FFF7BCFF3949606AFFF7B8FF0021384802
:10536000FFF7B4FF374B1E688EB1D6F800800137C7
:10537000D8F8003040461B69766898470028F3D17A
:105380003149D8F82400FFF7BBFF0125ECE70DB940
:105390002E4E06E031462E48FFF7B2FF01F0ECFD3D
:1053A00009E0AF4207D000231A461946306801F0E1
:1053B00087FA0135F5E7254800234FF0FF321946FB
:1053C000006801F083FB01F0EFFD02AE46F8040D2A
:1053D00001F0EAFD0546606818B1E16801F04DFC96
:1053E000A0602368A16A5B6920469847074630B9E8
:1053F000606A1849FFF784FF384601F07BFFA36914
:105400000133A361236A1BB101F0CEFD854206D3AF
:10541000E1690029DFD0304601F0CCFEDBE701F086
:10542000C3FD256A0544206902F03EF880006061F2
:10543000EEE700BF60CF0720C4060200C8060200E6
:10544000F506020064CF0720220702005CCF072088
:105450003B070200630702002DE9F3412F4E31683C
:1054600021B92F48FFF74CFF012053E04FF000080F
:10547000454600212B48FFF729FF3468CCB1276847
:10548000646807F11003FA6A019397F83030C2F3A9
:105490008F020093796A3B46234808F1010801F026
:1054A00067FC0028EAD12149786AFFF729FF012526
:1054B000E4E72146404601F0FAF91D4B186020B997
:1054C00021461C48FFF71CFF012500211A48FFF761
:1054D000FDFE34686CB1276864683B6838469B6899
:1054E00098470028F6D11549786AFFF709FF01258A
:1054F000F0E72046124B3268196842B117685268CB
:10550000FE6AB042F9D2396930460124F5E704B1A8
:105510001960284602B0BDE8F08100BF64CF0720C3
:1055200093070200C107020039530100D8070200A7
:105530005CCF0720F30702001608020031080200C2
:1055400060CF07200B4B10B518700846FFF784FF9B
:10555000044640B901460848FFF7B8FE01F0DAFCFE
:105560002146064801E006480021BDE81040FFF74B
:10557000C7BE00BF58CF07204508020060080200E0
:105580008408020070B5064602F006FB841941F15A
:10559000000502F001FBA94208BFA042F9D370BD8B
:1055A00008B501F091FF831E5842584108BD10B55F
:1055B0000446FFF7F5FF20B12046BDE8104001F09A
:1055C00025BE4FF47A706043BDE81040FFF7DABFA4
:1055D000074A0121136801FA00F023F0E06323F089
:1055E000FF031360136843F0807303431360704735
:1055F0000040034007B500230D4A019352680D484F
:10560000C2F30B12ADF802200DF1020101AA0068ED
:1056100001F0ECF9019B3BB1074B4FF080521A604F
:10562000BFF34F8FBFF36F8F03B05DF804FB00BF74
:105630000040034068CF072004ED00E010B502F001
:1056400025FC0121C4080C2002F040FA03210C20A3
:1056500002F054FA114A4FF4001311491360022367
:10566000B4FBF3F0884204D8116841EA03231360C5
:1056700003E00233B3F5807FF2D1012001F0A4F9F9
:10568000084B002218600221012001F0F7F8064BB8
:105690004FF480021860054B1A6010BD00400340B3
:1056A0003F5DC6006CCF072068CF072000E100E017
:1056B000F7B507284FF000040546ADF806402AD894
:1056C00001F002FF0228164E19D1164F234621463B
:1056D0004FF0FF32386801F0F9F92846FFF778FFFC
:1056E00023460DF106014FF0FF32306801F0EEF96C
:1056F000234622462146386801F0E2F80BE02846AE
:10570000FFF766FF00231A460DF10601306801F02D
:10571000DDF90028F6D0BDF8060003B0F0BD00BFEB
:1057200068CF07206CCF0720026830B5D36913F02B
:10573000040310D002F1300301F1100451F8045BAE
:10574000A14243F8045BF9D1438A01334382212308
:105750005360012030BD184630BDFFFF2DE9FF41E9
:10576000254D440155F804802F19D8F80C60D8F85D
:1057700008303343D90719D5786801F07CFAFB89E2
:1057800008F12001984288BFF88100232F191A469A
:10579000786801F02BF918B1BB8A0133BB8202E0B3
:1057A000BB890133BB810423C8F8043040F2026393
:1057B000334093B12F19B86801F05DFA3B8A00229B
:1057C000984288BF38822F196946B86801F018FAE4
:1057D00018B169463846FFF7A7FFB20603D52B1963
:1057E0009B6930469847330703D52C44E36930461C
:1057F000984704B0BDE8F08108C00720084B10B5F9
:10580000D3F8C440A20402D50020FFF7A7FF630429
:1058100004D5BDE810400120FFF7A0BF10BD00BFB8
:1058200000C00F4070B505460E4614467CB12B688B
:105830006BB12268134208D06368984722682B68CE
:1058400023EA02032B6023683360A468EEE770BD8F
:10585000F8B5012484400F4616461D4610D079B194
:105860000C2003F09DFE58B133682A688360054B15
:1058700080E8900014434FF4001230602C601A60EE
:10588000F8BD00BF00E100E01FB5184C184963687F
:1058900068460093A3680193636A0293A36A039323
:1058A000144B1A68FFF7BEFF134B11491A6801A881
:1058B000FFF7B8FF114B12491A6802A8FFF7B2FFB1
:1058C000104B0F491A6803A8FFF7ACFF009B0BB9F8
:1058D000019B13B14FF0FF33E360029B0BB9039BB5
:1058E00013B14FF0FF33E36204B010BD808002407B
:1058F0008C80024078CF07207CCF072070CF072014
:10590000AC80024074CF072010B414460029064A28
:105910000649074B18BF1346064A18BF0A462146D8
:1059200010BCFFF795BF00BF948002407CCF0720DA
:105930009080024078CF072070B5174B0E465C6907
:10594000164B05461A6C1A2022F470021A641A6C5F
:1059500004F4406442F420021A64996E41F44061F8
:105960009966196821F470011960196841F42001E1
:105970001960032102F0C2F802F088FAB4F5406F12
:1059800006D13246C1082846BDE8704000F054BB3D
:1059900001236B71002070BD00C0092000C00240CF
:1059A00010B50446024900F015FB204610BD00BFAB
:1059B00000000A4038B5074C236833B92C20FAF7A9
:1059C0005FFC0546FFF7ECFF25602068BDE8384026
:1059D00000F00CBD24C3072008B5044B1B68984792
:1059E000034A137A43F00103137208BD80CF0720E6
:1059F00000000B401FB50446054B0DF1100E0FCBF8
:105A00000EE90F000EEB840454F8100C04B010BD26
:105A1000BC08020073B50C460646FFF7EBFF0546CF
:105A20000F4B0121186802AB1E440090019016F83C
:105A3000080C02F04BF8012116F8040C02F05EF895
:105A400000230122AB606A602B6702F01FFA054B4E
:105A5000B0FBF3F04443013CEC6002B070BD00BF0A
:105A6000CC08020040420F00F0B5124B87B06C46E4
:105A70001D46074693E807008DE8070003AE93E84C
:105A8000070086E807000C223146204603F0B8FDE7
:105A900040B195E8070084E8070095E8070086E82C
:105AA0000700F0E703CC386020687960B8603846BA
:105AB00007B0F0BD14400240184B00221A72027861
:105AC000C2F3050283F820204278C2F3050283F86E
:105AD00024208278C2F3040283F82820C278C2F31B
