:020000021000EC
:10000000E03F082095010100FB000100E100010034
:10001000090101001901010029010100000000008F
:1000200000000000000000000000000051AC0100D2
:100030003901010000000000B1AC010059010100CC
:1000400091B2010091B2010091B2010091B20100A0
:1000500091B2010091B2010091B2010091B2010090
:1000600091B2010091B2010091B2010091B2010080
:1000700091B2010091B2010091B2010091B2010070
:1000800091B2010091B2010091B2010091B2010060
:1000900091B2010091B2010091B2010091B2010050
:1000A00091B2010091B2010091B2010091B2010040
:1000B00091B2010091B2010091B2010091B2010030
:1000C00091B2010091B2010091B2010000660200FC
:1000D00000C00720F4020000F8C20720C806000094
:1000E00004207146084203D0EFF309800BF0EEB80C
:1000F000EFF308800BF0EAB8704708B5014807F045
:10010000FBFCFEE7AA5F020008B5024807F0F4FC1A
:10011000FEE700BFB55F020008B5024807F0ECFC3F
:10012000FEE700BFC05F020008B5024807F0E4FC2C
:10013000FEE700BFCB5F020008B5024807F0DCFC19
:10014000FEE700BFD85F020008B5024807F0D4FC04
:10015000FEE700BFE65F020008B50AF02DFD0AF0D9
:10016000C9FDBDE808400AF03BBD0B4610B5401A7A
:100170005C1AA24203D9C45843F8044BF8E710BDF7
:10018000034610B500221C1AA14202D943F8042BE1
:10019000F9E710BD16480AF04FFE15480AF04FFE69
:1001A000144C154DAC4201D3144D07E094E8030004
:1001B0000C3454F8042CFFF7D8FFF3E7AC4206D216
:1001C00054F8080B54F8041CFFF7DAFFF6E70CF0BC
:1001D000BFFC0AF04BFE01F0DBFD02F0C5FD4FF461
:1001E00016400BF091F9064807F086FCFEE700BFC9
:1001F000E03F0820CC000100D8000100E000010031
:10020000FA5F02000AF038BD0AF046BD144B10B583
:100210001A68014612B94FF080521A60114C1868E2
:100220002468421894421A6007D20F4CA24204D8A4
:100230000E4A0B488C18046010460D4A1B68126861
:10024000934222BF064B00201A6039B1094A136855
:1002500001331360084B1860084B196010BD00BFD4
:10026000FCC2072004C30720FFBF0720C0C9072026
:1002700008C307200CC30720F8C2072000C30720CB
:100280000CF09EBD0CF0A4BD0CF0A2BD30B5044630
:100290008BB068460DF050F8224B079A2360089BFC
:1002A000214DA36062602149214B52B90A68186848
:1002B00082428ABF02F1604202F17042A2F5E82256
:1002C000626062681B68B2F5803F82BF02F17042D3
:1002D000A2F5E82262600022E2600A68934206D337
:1002E000991AC5F1005303F504230B440BE0114B9D
:1002F0001B68934208D9991AC5F1005303F5F823F6
:100300000B44002B00DDE36020460B4BE2611B68D1
:10031000A3610A4B1B686361094B1B6823610BB027
:1003200030BD00BFC0090000C0C90720FCC20720C3
:1003300004C3072008C30720F8C2072000C3072012
:100340000CC3072000207047034A044B1A60044A7C
:10035000044B1A60704700BF0080001004C30720E0
:100360000040082008C30720014B1860704700BFF9
:1003700018C30720014B1860704700BF10C3072047
:1003800008B502480DF080FFFEE700BF54360200BA
:1003900008B502480DF078FFFEE700BF6E36020098
:1003A0000020704701207047F8B5084B16461A68C0
:1003B0000F461C4642B10D46EB1B9E4204DD2368EE
:1003C00015F8010B9847F7E73046F8BD18C307202A
:1003D000F8B5094B0F46186816461C4658B10D462D
:1003E000EB1B9E4205DD23680020984705F8010BB2
:1003F000F6E726EAE670F8BD10C307207047002034
:100400007047FFFF074B1B689A68824207D05A6803
:10041000824204D0DB681B1A5842584170470120C1
:10042000704700BF38C10720002070470020704788
:1004300030B504468DB0A8B3684608F03FFB9DF880
:100440000030002503F03F0303939DF8013003A81B
:1004500003F03F0304939DF802300B9503F01F0354
:1004600005939DF8043003F01F0306939DF80530B3
:1004700003F00F03013B0793BDF80630C3F30B03F2
:10048000A3F26C7308939DF8033003F007030993FC
:10049000BDF80830C3F30B03013B0A930CF0DAFDFF
:1004A00084E8210000200DB030BDFFFF70B50F4D76
:1004B0000F4E2C6814F0010415D128460BF0C4FB34
:1004C00088B14FF40E70FFF7DBFE302380F8353231
:1004D0003A2380F8344280F8363280F83742306070
:1004E00028460BF0BDFB306870BD00BF34C3072049
:1004F00038C3072070B50F4D0F4E2B6813F0010461
:1005000016D128460BF0A0FB90B14FF40E70FFF708
:10051000B7FE012380F83432312380F835323A2394
:1005200080F8363280F83742306028460BF098FB6E
:10053000306870BD2CC3072030C307202DE9F04F71
:10054000ADF51B7D0F4607F0FBFE041E04DD0AF02F
:10055000FBFA20460AF03EF80DF114094C462A4DEC
:100560004FF0640B0FCD0FC42B6804AA2360102139
:1005700000240AA804940AF0EBF9244A824624498C
:10058000384608F00BFD26460AAD4FF00008D0456E
:100590001CD06B69A34215D1AA69049B16441BB1F8
:1005A000B3FBFBF3B2FBF3F3297B039202932B8C97
:1005B00000949B00019359F821306A681549384628
:1005C00008F0ECFC08F101082435E0E701340A2CBE
:1005D000DAD1049B64229E1BB3FBF2F30E49B6FBF7
:1005E000F3F30E4A0096384608F0D8FC09F0C6FE30
:1005F000102804D910220A49384608F0CFFC0120FF
:100600000DF51B7DBDE8F08F88360200A73602008D
:10061000AC360200D3360200FB360200F036020090
:100620001A37020010B50C46ADF5007D68460AF099
:10063000B5FD20464FF0FF32694608F079FC0120F5
:100640000DF5007D10BDFFFF30B50C4691B02C4973
:10065000054607F081FD002847D00CAB04930BAB97
:1006600003930AAB029309AB019308AB009306AA6C
:1006700007AB2449284607F0D7FC072801D0002003
:100680003BE09DF83930069A0DA862F303038DF81C
:100690003930079A9DF8383062F304038DF838300A
:1006A000089ABDF83A3062F30B03ADF83A30099A74
:1006B0009DF8363062F304038DF836300A9A9DF8BF
:1006C000353062F305038DF835300B9A9DF83430E0
:1006D00062F305038DF834300C9A9DF8373062F3DD
:1006E00002038DF8373008F011FA08F0ABFA06492A
:1006F0000246204608F052FC012011B030BD00BF78
:10070000443702004837020072560200F7B50D4622
:100710004E49044607F010FE064640B107F084F843
:100720004FF0FF324A49284608F002FC8BE0494965
:10073000204607F001FE60B307F09AF846490246EA
:10074000284608F02BFC07F09FF84449024628464B
:1007500008F024FC07F092F841490246284608F0C8
:100760001DFC304607F07AF80446012007F076F8C1
:100770000646022007F072F80746032007F06EF8DD
:1007800000970190334622463649284608F006FC79
:1007900059E03549204607F0DFFC50B12022012105
:1007A000204607F077FD204607F0C8FD07F084F9E2
:1007B00049E02E49204607F0CFFC064620B92C49D7
:1007C000204607F0C9FC60B32A49204607F0B2FC76
:1007D00060B92949204607F0ADFC28B920462749D1
:1007E00007F0A8FC044602E0032400E0022431469E
:1007F000204607F0B9F8224A224B002E18BF1A46AD
:100800003CB1012C07D01C491A4B022C18BF0B46D7
:1008100002E01D4B00E0194B1C49284608F0BEFBC6
:1008200011E0204607F08AFD194A1A490090F32387
:10083000012007F0A7F8204607F080FD1649024680
:10084000284608F0ABFB012003B0F0BD833702005F
:1008500089370200A2370200A9370200BE37020022
:10086000D3370200F2370200223802002638020095
:100870002E3802007E3702007837020072490200EB
:100880006937020061370200723702003738020010
:100890009C360200503802008338020030B589B01F
:1008A00004AB002400930D4603AB022218490394C5
:1008B000049407F0C7FB022827D107AB009305AAD1
:1008C00006AB0499039805940694079403F0B8FCCA
:1008D000024638B1049B0F4900932846039B08F059
:1008E0005DFB10E0059A069B002A079908BF0122CC
:1008F000002B08BF0123B1FBF3F3B1FBF2F2284652
:10090000054908F04BFB012000E0204609B030BD4E
:100910001249020091380200B03802002DE9F04778
:100920000E46ADF5856D3949054607F09FFC3849FF
:100930000746284607F0C3FC3549284607F0DFFC88
:10094000284607F0FBFC0122014681A805F0C2FC05
:10095000044640B1284607F0F1FC2E4902463046D5
:1009600008F01CFB4CE00DF1040A01464FF4007244
:1009700050460CF08AFA00940AF0FAFB8046894649
:100980006B464FF40072514681A805F03DFD08B951
:10099000009B23BB81A805F006FFCFB10AF0E8FB5E
:1009A0004FF47A7200230BF04BFE002305464FF400
:1009B0007A72404649460BF043FE281A14BF03469C
:1009C0000123B4FBF3F322461349304608F0E6FA5C
:1009D0004FF0FF321149304608F0AAFA10E01C44EB
:1009E000002FCDD13D46009B9D42C9D233681AF8F5
:1009F00005105B684FF0FF32304698470135F2E74B
:100A000001200DF5856DBDE8F08700BFDE380200DE
:100A100012490200E7380200FB380200893E02005A
:100A20002DE9F0470023BEB00C46534905460C9310
:100A300007F082FC20B9284607F080FC064600E05B
:100A40004E4E314615A805F067FF054630B1034606
:100A500032464B49204608F0A1FA89E0324649491E
:100A6000204608F09BFA2F460DF1780880230DA947
:100A700015A8CDF84C80149305F092FF002861D1A1
:100A80009DF83D30002B5DD09DF83C100DF13D00F0
:100A9000CA065BBF0D9B0C9A44229B185BBF0C934C
:100AA0002D220135013711F0010F14BF52232D23E0
:100AB000BDF83AA011F0020F09900D9814BF4FF045
:100AC000480E4FF02D0E11F0040F14BF4FF0530CD1
:100AD0004FF02D0C089011F0200FCAF34510BDF80F
:100AE000381007904FEAEA20069001F01F000590A9
:100AF000C1F343104FEA612114BF4FF041094FF099
:100B00002D0901F2BC71CDF804C0CDF800E00490CD
:100B10000391CDF808901C49204608F03FFA4FF0A9
:100B2000FF321A49204608F0EFF941464FF0FF32F4
:100B3000204608F0E9F94FF0FF320F49204608F04F
:100B4000F7F991E73A46124900950C9B204608F0C8
:100B500025FA0BAA0CA9304605F051FF40B90B9BB2
:100B60000C499A780C9B20465A43520808F016FA12
:100B700001203EB0BDE8F087893E02001639020030
:100B8000193902003D390200583902008539020046
:100B900089390200B339020070B50C46064607F0E9
:100BA000CDFB0546304607F0C9FB05F0EAFF064AD3
:100BB000064B0749002808BF13462A46204608F07E
:100BC000EDF9012070BD00BF693B0200733B0200DC
:100BD000C739020070B50C46064607F0AFFB054664
:100BE000304607F0ABFB05F06FFF064A064B07499E
:100BF000002808BF13462A46204608F0CFF90120F6
:100C000070BD00BF693B0200733B0200E339020084
:100C10007FB503AB002400930E4602AB02220F49BE
:100C20000294039407F00EFA022814D1029C039D4B
:100C30002046294606F04EF8094B0A49224600286C
:100C40000CBF084618462B4600900749304608F06E
:100C5000A5F9012000E0204604B070BD1249020051
:100C6000733B0200693B0200F539020030B5ADF577
:100C70000D7D0C46054607F061FB0A22014603A8DC
:100C800005F028FB40B1284607F058FB1F490246F3
:100C9000204608F083F934E08DF8070002901C49E3
:100CA00042F210737E22204608F078F91949204656
:100CB00008F074F9236842F210721B680DF1070105
:100CC0002046984718B19DF807307E2B03D103A822
:100CD00005F069FD15E002AB01220DF1070103A843
:100CE00005F04AFC58B9029B012B08D123684FF04C
:100CF000FF325B689DF8071020469847DAE70649FF
:100D0000D5E701200DF50D7D30BD00BF0D3A020085
:100D1000343A02006C3A02008C3A02002DE9F04F9E
:100D2000ADF5417D002304AC236003930D46009490
:100D300003AB0222414907F085F9022806D04FF0A3
:100D4000FF323F49284608F0F3F872E0216817A8FF
:100D500005F0E2FD10B122683A4906E0039917A8B0
:100D600005F0DAFD28B1039A3749284608F016F94C
:100D70005FE04FF480720DEB020105A807F024F943
:100D80004FF4807280A90AA807F01EF920AE8027D0
:100D90000FA917A81596169705F002FE002842D154
:100DA0009DF84530002B3ED09DF8443003F01003F1
:100DB00003F0FF0A002BEBD10DF14503039A234901
:100DC00005A807F005FB0DF1450322681F490AA895
:100DD00007F0FEFA05A807F0B1FA07460AA807F0DF
:100DE000ADFA804605A8DDF83C9007F0A7FA8346E7
:100DF0000AA807F0A3FA534652460146CDF800A0D0
:100E0000584603F01DFA124A124BCDF80090002804
:100E10000CBF184610461049019043463A462846F2
:100E200008F0BCF8B3E70AA807F0E3F805A807F054
:100E3000E0F801200DF5417DBDE8F08F1249020078
:100E4000B33A0200F83A02001D3B02003D3B0200AB
:100E5000733B0200693B0200433B0200F8B50D46BC
:100E60002449064607F068FA0446074618B1FFF71A
:100E700041FB002208E02049304607F05DFA0446B5
:100E800060B1FFF713FB3A46114600F2352005F03A
:100E9000B1FF4FF0FF32194B194922E01949304692
:100EA00007F04AFA044658B1FFF724FB012200F28A
:100EB000352105F0D1F94FF0FF32134B134910E003
:100EC0001349304607F038FA044680B1FFF7EEFACE
:100ED000012200F2352105F0BFF90E4B0E494FF00B
:100EE000FF32002818BF1946284608F021F820468E
:100EF000F8BD00BFCA3B0200D43B02006C3B0200BD
:100F0000623B0200E13B0200893B0200793B0200A8
:100F1000EA3B0200AE3B0200A03B020008B50846D7
:100F20004FF0FF32084908F003F806F07DFC4FF45B
:100F3000FA6009F04FFB4FF08043AA221A72002298
:100F40001A70012008BD00BFF63B020010B5012059
:100F50000C4607F02DF840B100231A46194608F058
:100F6000FFFD4FF0FF32054902E005494FF0FF3227
:100F7000204607F0DDFF012010BD00BF073C020046
:100F80001D3C020038B5064C236833B92C20FFF70E
:100F900077F9054607F09AFC2560206838BD00BF48
:100FA00024C307202DE9F04F5F4C91B023680E4613
:100FB00033B92C20FFF764F9054607F01BFF2560C5
:100FC0002768FFF773FA00240CAA0DA900F2352058
:100FD0000D9405F014FD48B90C9A0D9C9569937811
:100FE000023D5C435D4364086D0800E025464F4BBD
:100FF0001A6898467AB90C20FFF742F98146FFF744
:10100000C1FF902389F804300023C9F80000C9F813
:101010000830C8F80090D8F8000003F0FFF88146C7
:101020000BF0C8FA0A900BF021F9014648460BF084
:1010300067F83F490BF06EF90BF0BCFA81460DA83A
:1010400009F00AFF04F040F868B307F075FE04F0F9
:1010500025F84FF0000A0346D346D0469A450B9335
:101060000BD0504604F07EF8804538BFD3460B9B2A
:1010700038BF80460AF1010AF0E707F075FE6423E5
:1010800003FB08F32B4ACDF80880B3FBF2F3C3F15E
:1010900064030093CDF804B02B462246264930461F
:1010A00007F07CFF05E02B4622462449304607F036
:1010B00075FF234C23681BB90120FFF7E1F820607E
:1010C000206803F06FF8044607F0BCFDFB8C0A9A19
:1010D0000993BB8C1B4908939DF83430019003F0B1
:1010E0003F0307939DF83530009403F03F030693C8
:1010F0009DF83630304603F01F030593BDF83A30B3
:10110000C3F30B0304939DF8383003F01F030393DC
:101110009DF8393003F00F0302934B4607F03EFF72
:10112000012011B0BDE8F08F28C307201CC30720A1
:1011300000002041A0860100563C02008A3C0200CB
:1011400020C30720983C02002DE9F04F0D46C7B0A0
:101150005549814607F017F854498246484607F03A
:1011600012F853498346484607F00DF800270DF161
:10117000100805AE044602970397C8F80070376060
:10118000BAF1000F45D0009603AB02AA4949484680
:1011900006F04AFF012807DC28464FF0FF32464997
:1011A00007F0C6FE38467CE00DF118084FF4807455
:1011B0002246394640460BF068FE336813B90123D6
:1011C000336003E0B3F5807F88BF3460FFF7DAFE59
:1011D00033689DF80C209DF808100093434607F0F3
:1011E000A7FF364A364B3749002818BF1346029AE4
:1011F000284607F0D3FE002433689C424ED2039A5F
:1012000018F8043022443049284607F0C7FE01345C
:10121000F2E7BBF1000F2CD0CDF8008003AB02AA9F
:101220002A49484606F000FF032807D028464FF019
:10123000FF32274907F07CFE504632E0FFF7A2FE5E
:1012400098F800309DF80C209DF8081007F085FFF5
:1012500048B1039B1F490093D8F80020029B284601
:1012600007F09CFE1AE0029A1B49284607F096FEFA
:1012700014E0A8B102230293029BFE2B10DCFFF7BF
:1012800081FE9DF8081007F073FF20B1029A134900
:10129000284607F083FE029B0233ECE7012000E0C2
:1012A000204647B0BDE8F08F314A0200013D020000
:1012B000073D0200103D02001F3D0200693B020095
:1012C000733B0200403D0200643D0200743D020099
:1012D000843D0200AB3D0200C53D0200E23D02003C
:1012E00070B5ADF50A7D05460C4606F094FE0B2858
:1012F00002DD0C2222493CE0284607F01FF80122BB
:10130000014601A804F0E6FF064668BB01A805F007
:101310004AFA284607F012F81A490246049B20466A
:1013200007F03CFE236820469B6898470A2009F096
:1013300051F94FF0100383F31188BFF36F8FBFF3A0
:101340004F8F284606F0FAFF02460F4B006851689F
:1013500003C390680D4A186043F80C2C4FF080438B
:10136000AA221A721E7007E0284606F0E7FF02461E
:101370000749204607F012FE01200DF50A7D70BDD9
:101380001C3E0200433E0200484002400DD0ADDE4C
:101390008A3E02002DE9F041404CA4B02368064685
:1013A000DB070D460CD420460AF04EFC40B14FF44A
:1013B00080600BF005FD3A4B186020460AF050FCA7
:1013C0003849304606F0DFFE0746044600B3802267
:1013D000002104A80BF059FD00230293039303ABF3
:1013E000009304AA02AB3049304606F01DFE2C499A
:1013F000029B039A096804A813B902F0BDFF01E03B
:1014000002F0DCFF294B2A49002818BF194638E0B2
:101410002849304606F0B7FE074600283AD004AB0C
:10142000304603AA2449039404948DF8084006F03A
:10143000FBFD039E049B3344B3F5806F02DCDFF8B1
:1014400060800CE04FF480621C4920E0D8F8003046
:101450009DF808209A559DF8083001361C44039BDE
:10146000049AF31A934210DAB6F5806F0DDA2B68FE
:101470004FF4FA621B6802A9284698470028E5D174
:101480000F49284607F08AFD04E022460D49284608
:1014900007F084FD384624B0BDE8F08140C3072042
:1014A0003CC30720B53E0200BC3E0200A33E020042
:1014B0009F3E0200CC3E0200D33E0200DD3E020011
:1014C000013F0200113F020038B50D4606F038FF1B
:1014D0000446C0B201F086FE054A064B06490028C4
:1014E00018BF13462246284607F058FD012038BD94
:1014F000693B0200223F0200293F020030B50C4642
:10150000054687B00A4907F049FDA1882388049160
:10151000218962880391E18828460291E17A01914C
:10152000A17A0091034907F039FD07B030BD00BF33
:10153000403F0200763F02002DE9F0418CB003AB42
:10154000002600930D46904602AB022238490296CF
:10155000039606F077FDB04266DD02980BF007FABD
:10156000C7B2039818B10DF091F9C4B200E0044677
:10157000002104A802F0D6FC30B14FF0FF322D4913
:10158000284607F0D5FCF3E7022318F10001009389
:10159000039A234618BF0121384601F067FF06462B
:1015A00038B94FF0FF322449284607F0C1FC012624
:1015B0003AE0B8F1000F37D04FF47A7104A802F086
:1015C000B9FC60B39DF81030BB4228D19DF81730AC
:1015D0000C2B04D13A4606A92846FFF78FFFBCB969
:1015E0001649284607F0DAFC9DF817309C420ADAC3
:1015F00004AB19192B684FF0FF325B68097A284653
:1016000098470134F0E70E49284607F0C7FC0BE085
:101610004FF0FF320B49284607F08AFC04E0029A9B
:101620000949284607F0BAFC30460CB0BDE8F08105
:1016300012490200943F0200B63F0200DE3F020062
:101640000B460200F23F02000F4002001FB501A846
:101650000C4602F0E9F801F0D1FD01A9024620464E
:10166000FFF74CFF012004B010BDFFFF30B58BB079
:101670000AAA4FF47A730C4642F8243D174906F043
:10168000D3FC0025019902A802F04CFCD8B19DF8CA
:1016900008201349204607F081FC00259DF80F30F3
:1016A0009D420ADA02AB591923684FF0FF325B689A
:1016B000097A204698470135F0E70A49204607F0A5
:1016C0006DFC0125DEE72DB94FF0FF3206492046BB
:1016D00007F02EFC01200BB030BD00BFDA3E020047
:1016E00035400200883E02004C40020037B50C46EF
:1016F00001F0FEFE05461649204607F04FFC15494D
:101700002A46204607F04AFC1149204607F046FCCD
:10171000D5B11149204607F041FC0D49204607F09C
:101720003DFC0025E8B201F0CDFE013540B18178E5
:101730004378027800912046084907F02FFCF1E732
:101740000349204607F02AFC012003B030BD00BF4A
:101750005D4002007840020092400200AD4002006D
:101760002DE9F3473C4C074626688946002E62D196
:101770002420FEF785FD0423054680E848008660A6
:10178000C660202130460CF0E9FDAE68E8604FEA03
:101790008608072E0ED81020FEF772FD8246102212
:1017A00000210BF072FBEB68013643F808A008F14A
:1017B0000408EEE7002608236B604FF00108274B72
:1017C000274A28492846009685F82080256005F09C
:1017D0009DFD254B254A26492068009605F096FD7B
:1017E000244B254A25492068009605F08FFD244B9F
:1017F000244A25492068009605F088FD234B244A99
:1018000024492068009605F081FD234B234A244992
:101810002068CDF8008005F079FD224B224A20494E
:101820002068009605F072FD0096204B204A214961
:10183000206805F06BFD2049384606F07DFD18B1A3
:101840001E49384606F032FE4A463946206802B044
:10185000BDE8F04705F03ABE48C30720C840020083
:10186000024102000D1B0100094102005D4102001E
:10187000E118010066410200894102006D16010075
:101880008C410200EB460200C9140100B64102007F
:10189000D2410200ED160100D9410200404202008F
:1018A000391501001A4202003F4202004442020080
:1018B0005F4202004D160100893E020065420200AF
:1018C00038B5064C236833B95820FEF7D9FC0546D5
:1018D00007F0D4F82560206838BD00BF44C3072056
:1018E0002DE9F04F0446ADF2DC5D802288460DA85C
:1018F00000210BF0CAFA802200212DA80BF0C5FAB6
:1019000006AE002333600DAA00962DAB7549204624
:1019100006F08AFB032801D00020DFE001220DA998
:10192000EDA804F0D7FC05460028F5D1FFF7C8FF65
:101930003368802280F853304DA9044608A88DF8FA
:101940001750079506F040FB2DAB009333680DAAA6
:101950006549404607F022FBA94607AE33464FF4DF
:1019600000726DA9EDA804F04FFD002840F0AF8093
:101970003368002B00F0AB806F1C32685B49204657
:1019800007F00CFB236820469B6898477D1E0DF5E9
:10199000DA7B4FF0000A6DAB3268C3EB0B039A425F
:1019A00023680CD9CDF80CB05B684FF0FF321BF800
:1019B000011B20469847039B1B789A44EBE79B68E2
:1019C0002046984708A806F0B9FC834608A806F008
:1019D00025FB4FF47A7302465946204607F0B6FAC3
:1019E000202201210DEB020006F054FC08A806F0AD
:1019F000A7FC824520D008A806F0A2FC5246034668
:101A00003B49404607F0CAFA3A49204607F0C6FA71
:101A1000236820469B68984723684FF47A721B68B6
:101A20000DF11701204698470028F5D1022F07F144
:101A300001034CD81F46A0E733682DAA2E49009316
:101A400020464B4607F0AAFA236820469B68984731
:101A500008A806F073FC824608A806F0DFFA514693
:101A600002464FF47A73204607F070FA234908A81B
:101A700006F060FBD0B908A806F060FC20490246D9
:101A8000404607F08BFA1B49204607F087FA236887
:101A900020469B68984723684FF47A721B680DF1C3
:101AA0001701204698470028F5D1BFE7154908A837
:101AB00006F0FCFC3368144999444A46F09B4046C2
:101AC00007F06CFA002D3FF448AFBD1E45E7EDA8C6
:101AD00004F069FE08A806F08CFA01200DF2DC5D26
:101AE000BDE8F08F6A420200794202009042020093
:101AF000A2420200883E0200C9420200DF42020008
:101B0000E2420200893E02001A4302002DE9F0473A
:101B1000074686B006AA002442F80C4D0E463D4901
:101B200006F082FA20220121384606F0B3FB039B1F
:101B3000002B65D0384606F06EFA002860D0FFF71B
:101B4000BFFE05460DF1180808F80D4D2B6805225B
:101B50001B6841462846984704460028F6D1039B57
:101B6000384685F8533006F0E9FB274601464FF02A
:101B7000FF32284607F0DCF92B6828469B68984717
:101B8000254B0DF11809186849F8044D04902B688D
:101B90004FF47A721B68414628469847D0B1032219
:101BA0000DF1150148460BF055F99DF80BA00422E4
:101BB00004A948468DF817A00BF032F950B13368EC
:101BC00001225B6851463046013798470028DED134
:101BD0000134DCE71822B7FBF2F302FB137202B107
:101BE00001333A460D49304607F0D8F974B1612304
:101BF000009322460A4B0B49304607F0CFF905E027
:101C00004FF0FF320849304607F092F9012006B044
:101C1000BDE8F087DA3E02001E3F020026430200C4
:101C20004D430200894302004244020001480CF087
:101C30002BBB00BF6E44020038B504460D4609F0C8
:101C400011FC074BB0FBF3F00223B0FBF3F2AA4206
:101C500004D9B3F5807F01D00233F6E7236138BDA4
:101C600040420F007FB500F235260C460122314676
:101C700004F0F2FA054648BB039002AA03A93046D5
:101C800004F0BDFE00BB0298039A837802FB03F1C7
:101C900082691348023A5A435208B2F5004F38BFDE
:101CA0000120104B4FEA510124BF03464FF48060DE
:101CB000B1FBF0F1B2FBF0F20091019321460A482A
:101CC0000CF070FA012008E0084B00E0084B2A46AF
:101CD000214608480CF066FA002004B070BD00BF31
:101CE000AC440200A9440200B6440200B24402001F
:101CF000AF440200E444020038B5074C23684BB9F6
:101D00000820FEF7BDFA0546FFF73CF9402328609E
:101D10002B712560206838BD54C3072038B5054CA9
:101D2000256825B90120FEF7ABFA05702060206810
:101D300038BD00BF50C3072038B5084C23685BB9D5
:101D40000C20FEF79DFA0546FFF71CF990232B7136
:101D500000232860AB602560206838BD1CC30720C5
:101D600010B5044C23681BB90120FEF789FA2060E6
:101D7000206810BD20C3072010B5044C23681BB990
:101D80000120FEF77DFA2060206810BD4CC30720BB
:101D9000AD49AE4A4023F0B58B614FF000739361BB
:101DA0004FF480338B61AA4BADF5057D186807258C
:101DB00020F0F00018601868022440F0500018600D
:101DC000186820F440501860086840F0400008602F
:101DD000186820F47C201860186840F428201860E7
:101DE000186820F470001860186840F4200018602B
:101DF000186820F040401860186840F000401860F3
:101E0000586820F03C005860586840F0280058603E
:101E1000586820F003005860086840F4803008607B
:101E2000586820F440505860086820F4800008602A
:101E3000D96821F44031D960116841F08071116096
:101E4000596821F440215960596841F48021596052
:101E50009868804901409960116841F4897141F0A6
:101E600001011160996821F470119960996821F05D
:101E700070419960116821F446411160D96821F0E0
:101E80003001D960D96841F03001D960D96821F4B6
:101E90007011D960136843F000731360136823F066
:101EA0008063136006F060FB01210A2009F0FAF854
:101EB00001210A2009F00EF96748012105604460FC
:101EC000FFF7BAFE06F0C8FE0121152009F0EAF876
:101ED0000121152009F0FEF86048012105604460E9
:101EE000FFF7AAFEFFF74EF8642106F0BBFC10B91D
:101EF0005B480CF0C9F909F011F901F0EDFF10B9D8
:101F000058480CF0C1F94FF4FA6006F0E6FAFFF712
:101F10008DFE09F0A7FA0AF0A5F953490AF0AEFAC6
:101F20000AF026F802460B4650480CF03BF908F040
:101F30008DFF052804AC14D1002363604C4B1B6853
:101F40002360FFF773FE4B4B4B48D96C1A6D5B6DEA
:101F500000940CF027F9FFF769FE41F2883006F093
:101F6000BCFAFEF7A3FA4549FFF77CFE054668BBBD
:101F700043480CF017F903F01FF9FEF797FA2946CA
:101F80002A4600F2352004F035FF3E4B3E4A002839
:101F90000CBF104618460CF077F9FEF787FA374960
:101FA000FFF760FE90B939480CF06EF903F086F83F
:101FB000014637480CF0F6F803F070F8054603F0D8
:101FC0007DF800FB05F133480CF0ECF8324E334F4E
:101FD000336813F0010516D1304609F035FE90B193
:101FE0004FF40E70FEF74CF9012380F834323123A0
:101FF00080F835323A2380F8363280F8375238602C
:10200000304609F02DFE26493868264DFFF72AFE96
:1020100018211148FFF710FEFFF708FE2B684BB997
:102020000820FEF72DF90646FEF7ACFF3823306096
:1020300033712E60286801F0C6FF0546B0BB1A4810
:102040000CF022F933E000BF00C0092020C00920B5
:1020500000C00240F0FCFCFF00000340008008408C
:102060002845020059450200002474497E450200BB
:102070004440024000400240964502000E460200E5
:10208000164602001C450200174502005346020096
:1020900072460200814602002CC3072030C307208D
:1020A000983B02005CC307209C4602000125FFF715
:1020B00043FE02F089F8064618B972480CF0E4F8BD
:1020C0003546FFF719FE02F001F8064618B96E48CA
:1020D0000CF0DAF835466D4E33681BB90120FEF777
:1020E000CFF83060306801F0BFFFFFF739FE02F033
:1020F00057F8FFF713FE02F022F8FFF73DFE02F05B
:1021000054F8FFF70BFE002102F01CF88DB9FFF721
:102110008DFDFFF7F1FD2D2101F0C0FFFFF7ECFD74
:102120002D2101F0C7FFFFF7F9FDFF2102F00AF8AA
:102130000CE0FFF7E1FD0546FFF7FEFD02F06EF84B
:102140000AF05EFAC1B2284601F0DCFF102200213D
:1021500020460AF09AFE00230F2221464C4802F046
:10216000E9F880B920460AF002FCC5B2284601F021
:1021700039F8484A484B2946002818BF1346444AB4
:1021800046480CF00FF8FFF7EBFD02F00BF80546A0
:1021900000200DF007FB28440CF07EF84FF400728D
:1021A000002120460AF071FE204608F0F7FF214684
:1021B0003B480BF0F7FFFFF739FD80220021204656
:1021C0000AF063FE204602F055FF2278FF2A04D071
:1021D000214634480BF0E6FF29E0FFF7CDFD01F082
:1021E000E7FF09281DD130480CF04EF821462F4852
:1021F0000CF05EF921462E480BF0D4FF2D480CF070
:1022000043F8002303A92C4803930CF051F99DF8DF
:102210000C30592B03D1204602F00AFF07E0274873
:1022200003E027480CF030F826480CF02DF84FF268
:1022300008031D684FF20C031C684FF210031E6860
:102240004FF470431A684FF20403AD0A1968A40AE8
:102250001D480BF0A7FF2A4621461C480BF0A2FFA1
:1022600031461B480BF09EFFFFF7E0FC012005F014
:1022700011FB18480CF008F8FFF7D8FC0DF5057DA8
:10228000F0BD00BFB7460200D146020058C3072088
:10229000EA46020022450200223F0200F046020008
:1022A00072560200244702004047020062470200C3
:1022B0006747020082470200C5470200C947020083
:1022C000E14702000F480200414802006D48020049
:1022D0009A480200B7480200012070470120704769
:1022E0000120704710B5044C23681BB90120FDF78D
:1022F000C7FF2060206810BD58C307200120704729
:1023000038B504460F4B00250360636DE06DAB42AA
:1023100005D950F82500FDF7B5FF0135F5E708B1FF
:10232000FDF7B2FF0025A36B206CAB4205D950F836
:102330002500FDF7A7FF0135F5E708B1FDF7A4FF7C
:10234000204638BDF048020010B50446FFF7D8FF1C
:102350002046FDF797FF204610BD2DE9F0410446C9
:102360000E46C06889000BF0F9FFA568E060AF0079
:102370004FF00008AE420DD90C20FDF781FFE36855
:10238000C0F80080C0F8048080F808800135D8517A
:102390000437EFE76660BDE8F081FFFFF7B504465C
:1023A00000250B464FF480520095254905F0E6FDC7
:1023B000244B042623606663A563E563256402213C
:1023C00004F13400FFF7C9FF26656565A565E5657D
:1023D000284660210BF0C2FFA56DE065AE00172D09
:1023E0000CD81020FDF74CFF0746102200210AF000
:1023F0004CFDE36D01359F510436F0E7182363650A
:10240000012384F87030104E0023A4F87430A4F82F
:102410007630A367002200230027C4E92023C4E903
:10242000226708F0A5FE4FF47A7200230AF008F93B
:1024300080197941C4E92001204603B0F0BD00BFF6
:1024400008490200F0480200C0D401002DE9F04123
:102450000F7A14464D680E688FB1082A23D128469A
:1024600005F0D9FD00281CDD4FF0FF32134930463E
:1024700006F04AFD0121284605F0CCFE08E00A2AB4
:1024800019D00D2A12D02146284605F0E4FF97B155
:10249000336821463046BDE8F0415B684FF0FF32BB
:1024A00018470724F4E70A2A02D1F1E7BDE8F081D2
:1024B0000D2AEDD0E7E7BDE8F08100BF1149020029
:1024C000F8B50446142015460F46FDF7D9FE8021C5
:1024D000064605F070FFA36BE26B9A4206D3616B70
:1024E000591803D204F13400FFF737FFE36B226C75
:1024F000591C52F82330E1631F605E601D72F8BD05
:102500002DE9FF47CF6B06460D4601AC3FB94FF4AE
:102510007A7008F05FF801976760A76047E00B6C7E
:102520000DF110081B6893E8070084E807000023FA
:1025300008F80D3D07F016FF81460027EB6B9F4220
:1025400063D22B6C4FEA870A53F827301868037C54
:10255000002B34D0036800221B684146984770B3B3
:10256000EB6B9F422DD22B6C53F80A3093E8070097
:1025700084E807009DF8032021462846FFF766FF00
:1025800008F0F6FD4FF47A7200230AF059F8D5E905
:10259000222380185941C5E92001029805F03BFD2E
:1025A0000746029805F03AFD013887420CDB94E8B3
:1025B000070086E80700304604B0BDE8F087013721
:1025C000BCE705F14403D1E7D5E92223134324D026
:1025D00008F0CEFD4FF47A7200230AF031F8D5E905
:1025E0002023994208BF904217D308F0C1FD4FF451
:1025F0007A7200230AF024F8D5E922238018594181
:102600000023C5E920010193D1E707F0ABFE814526
:10261000C3D1022007F0DEFFBFE79DF803300A2B8D
:1026200088D1C4E7F0B5054685B020480BF0BAFD67
:10263000294601A8FFF764FF019C1CB91C480BF058
:1026400023FE30E0029E304605F0E5FC00282ADD3E
:1026500008F08EFD0746F8B1B5F8743005F150006A
:102660000133A5F874302246314604F02FFF114B98
:1026700000251868009023681DF805105B684FF06E
:10268000FF32204601359847042DF4D108F070FD43
:10269000C11B09480BF086FD304605F0C1FC2368DC
:1026A00020469B689847012005B0F0BD1449020000
:1026B000893E0200E44802001A49020038B5064C7F
:1026C000236833B92C20FDF7DBFD054606F092FBAD
:1026D0002560206838BD00BF28C3072010B5044618
:1026E000FFF7ECFF03682146BDE810405B684FF040
:1026F000FF32184713B5002302AC04F8013DFFF781
:10270000DDFF03684FF0FF321B68214698479DF8B4
:10271000070002B010BDFFFF2DE9F04100F15004A9
:102720008AB00025064600952046624B624A6349FE
:1027300004F0ECFD00952046614B624A624904F0CA
:10274000E5FD00952046614B614A624904F0DEFDDB
:1027500000952046604B614A614904F0D7FD009521
:102760002046604B604A614904F0D0FD0095204648
:102770005F4B604A604904F0C9FD009520465F4BFD
:102780005F4A604904F0C2FD009520465E4B5F4AF7
:102790005F4904F0BBFD009520465E4B5E4A5F49F1
:1027A00004F0B4FD009520465D4B5E4A5E4904F09E
:1027B000ADFD009520465D4B5D4A5E4904F0A6FDE7
:1027C000009520465C4B5D4A5D4904F09FFD0095F5
:1027D00020465C4B5C4A5D4904F098FD009520461C
:1027E0005B4B5C4A5C4904F091FD009520465B4BD5
:1027F0005B4A5C4904F08AFD009520465A4B5B4ACF
:102800005B4904F083FD009520465A4B5A4A5B49C8
:1028100004F07CFD00952046594B5A4A5A4904F071
:1028200075FD00952046594B594A5A4904F06EFDF2
:1028300000952046584B594A594904F067FD0095C8
:102840002046584B584A594904F060FD0095584BB2
:10285000584A5949204604F059FDFFF72FFF4FF41D
:10286000807320224FF41641054606F0A3FA8046F5
:1028700001272F745148FDF77DFD5148FDF774FD88
:102880003A4629463046FFF71BFE082203A905A851
:1028900005F09AFB05A84B4905F008FE2A4605A954
:1028A000204604F013FE05A805F0A3FB40460AB03D
:1028B000BDE8F08130490200724902003D05010087
:1028C0006749020077490200250601007F4902009E
:1028D0008D490200A50F010094490200D54902006C
:1028E00049060100DA490200364A02001D090100CA
:1028F0003A4A0200C84A02009D0801007C4A0200D0
:10290000C74A02001D0D0100CB4A0200F94A02002D
:10291000210A0100FC4A0200214B0200990B010030
:10292000274B0200544B0200110C0100574B0200D0
:10293000896202006D0C01007C4B02009F4B02007B
:10294000D50B0100A24B0200754C02004911010099
:10295000794C0200BC4C02005D0E0100C44C020028
:10296000D74C02001D0F0100DE4C0200DD4D0200BD
:102970000D070100E14D0200094E02004D0F01005C
:102980000F4E02007545020061170100394E02002A
:10299000504E0200C92C01005D4E0200734E020031
:1029A000192D01007F4E0200734F020095130100A4
:1029B0003C4F0200DB3B0200E1120100F526010062
:1029C000DD260100654202007047FFFF10B59DF84B
:1029D0000800F9B93049D1F8C44044F40014C1F8F2
:1029E000C440D1F8AC4124F44064C1F8AC41D1F802
:1029F000AC4144F48064C1F8AC41A1F550214C686D
:102A000044F028044C600C6844F000440C6001F56C
:102A1000B8212AE001293DD11F49D1F8C44044F42E
:102A20008064C1F8C440D1F8A84124F44014C1F82E
:102A3000A841D1F8A84144F48014C1F8A841A1F5F7
:102A400050210C6824F440540C600C6844F4282491
:102A50000C600C6C44F42A240C6410490C6844F09B
:102A600040040C6040248C610D490C68013A2243FB
:102A70000A600A4613F1310F0BBF0B68096823F097
:102A800030030B431360536843F002035360136930
:102A900003431361012010BD00C00F4000C0092096
:102AA00000000340044B9960DA68D206FCD4024B64
:102AB0009868C0B2704700BF008008407047FFFFB1
:102AC000F8B504460F461646104A53690F4D13F4E5
:102AD000000FFAD04FF48003EB6102212046FFF78C
:102AE000E1FF39462046FFF7DDFF310A2046FFF7B8
:102AF000D9FFF1B22046FFF7D5FF6B691B02FCD569
:102B0000024B4FF480029A61F8BD00BF20C009203B
:102B100013B5082200926FF0300300210446FFF73E
:102B200055FF234B20461A6842F400221A60214ABE
:102B3000D16821F0C001D160196841F48011196099
:102B4000D16821F44071D160196841F480011960A5
:102B5000D16821F44051D1604FF4002199614FF4C4
:102B6000801199614FF480019961196821F4000185
:102B70001960D368002123F44043D3604FF400620E
:102B8000FFF79EFF20464FF400520321FFF798FF06
:102B900020464AF645420521FFF792FF45F255527D
:102BA00020460B2102B0BDE81040FFF789BF00BFEF
:102BB00020C0092000C002402DE9F74F144E4FF409
:102BC000801881468A463746B346434620257269B7
:102BD0001102FCD5A5F12004FB61A4B2AC4209DAD4
:102BE0001AF80410484601340193A4B2FFF75AFFC3
:102BF000019BF3E7DBF814201202FBD52035B5F575
:102C0000087FC7F81880E2D103B0BDE8F08F00BF9D
:102C100020C0092010B50A48ADF5007DFFF778FF08
:102C2000084C00234FF47A726946206807F09EF83A
:102C30000028F6D069460248FFF7BEFFF1E700BF63
:102C400088C5072060C3072010B50446FFF736FF8C
:102C5000204610BD30B5ADF23C4D0122144981A88B
:102C600003F0FAFA012213490546134803F032FB38
:102C700004466B464FF4007201A90F4803F0C4FBF1
:102C800094B90E4C85B90028FDD1034601A94FF037
:102C9000FF32206806F064FF6B464FF4007201A912
:102CA000054803F0B1FBEEE70DF23C4D30BD00BF2F
:102CB000934F0200964F020064C3072060C30720B1
:102CC00008B5FFF7C7FFFCE700B58BB00D4903ABB4
:102CD0006A4605F0A9F90C4903A80BF0C5FD18B91F
:102CE0000A4B186807F0EAFC094903A80BF0BCFD81
:102CF00018B9084B186807F0E1FC01200BB05DF82B
:102D000004FB00BFA24F0200A84F020090C507209D
:102D1000B54F02008CC5072000B58BB00D4903AB41
:102D20006A4605F081F90C4903A80BF09DFD18B91E
:102D30000A4B186807F092FA094903A80BF094FDB2
:102D400018B9084B186807F089FA01200BB05DF834
:102D500004FB00BFA24F0200A84F020090C507204D
:102D6000B54F02008CC5072073B500224FF40071E7
:102D7000032006F0D3FE154B0024186002238DE8D3
:102D80001800032523464FF480621149114807F0CB
:102D900069F923464FF480620F49019400950F486A
:102DA00007F060F99020FDF76BFA06462946FFF719
:102DB000F5FA304605F0B4F82046214605F0BEF895
:102DC00007F086FA204602B070BD00BF60C307203E
:102DD000C24F0200C12C0100D04F0200152C01008F
:102DE00010B5054C2046FFF7EFFD2046BDE810402A
:102DF000024A0349FDF7A6BA88C5072014C3072075
:102E0000492C010010B54FF6FF74242303FB010188
:102E1000884209D043782BB1038C1344A34228BFC6
:102E2000234603842430F3E710BDFFFF37B50023AA
:102E300002A840F8043D0C4B04215B6898470B4BFB
:102E4000019A1C680546141B1A6004212246084892
:102E5000FFF7D8FF224602210648FFF7D3FF281CC0
:102E600018BF012003B030BD94C5072064C60720F9
:102E7000A8C5072081C6072008B50B4B1978037831
:102E80008B420A4B0BBF1A889A880132013214BF59
:102E90009A801A80064B8170DB68202198470030A9
:102EA00018BF012008BD00BF05C0072039C6072094
:102EB00094C507200A4B02781B789A42094B0BBF36
:102EC000DA881A89013201320CBFDA801A8103795B
:102ED000C3F3C202073262F3C5030371FFF7CCBF2D
:102EE00005C0072039C6072010B50749002311F88F
:102EF00023409A00844202D10348104410BD01339C
:102F0000042BF4D1002010BD53C6072070B1C37844
:102F10000133DBB2FF2BC37008D105480023C11871
:102F2000CA7804335208102BCA70F8D1704700BF1A
:102F300053C60720242202FB01010346024630B596
:102F4000914206D01446243212F8235C002DF7D1AA
:102F50000FE00446002599420BD01A79C2F3C20053
:102F60001A8C42EA0042AA4284BF1C46154624330A
:102F7000F1E7204630BDFFFF38B50546C90001F135
:102F80000804FFF753FF1C4B2A781B789A4204D1A0
:102F900002211A48FFF7CEFF0CE004211848FFF782
:102FA000C9FFEB7833B990F82330042443F0800351
:102FB00080F82330002380F8203080F8213002464A
:102FC0002B4690F8231080F8224021F07F01C4F3B3
:102FD00006240C4380F8234005F1200153F8044BEC
:102FE0008B4242F8044BF9D1064A0379127862F316
:102FF000C503037138BD00BF05C0072081C6072087
:10300000A8C5072004C0072008B5FFF76DFF0346D9
:10301000D8B9FFF769FF0346B8B90D4AD378D1791B
:10302000D07A8B4296BF1946131D1346814294BF36
:103030000846084BD17B084A814238BF13460749EE
:1030400000221A60CA7A0132CA72184608BD00BF4F
:1030500053C607205BC607205FC6072039C6072076
:103060002DE9F84F05460C464FF0240909FB0219DB
:10307000DFF868A1DFF868B14E1C4FF000084C453E
:1030800000F09A8094F823301A0624D5B5B12A7836
:1030900061788A4205D16F7816F8010C874200F0FA
:1030A0008D80E87850B16878884207D116F8011C05
:1030B000914203D1A979A27991427FD094F822203C
:1030C000218C03F07F0342EA0323994271DB2046FF
:1030D000FFF7D2FE72E06278002A6AD06DB32979D8
:1030E00001F0C001C02917D116F8010C6978884297
:1030F00002D12878904261D0E778A87887420CD135
:1031000091420AD116F8010C2978884205D1A0799C
:10311000A979884201D151E079B1A878E178884253
:103120000BD16978914208D116F8010C29788842B0
:1031300003D1A079A979884246D094F82210208C36
:1031400003F07F0341EA0323984232DB237984F8BA
:103150002080C3F3C201CFB284F821801FB1204682
:10316000FFF7A8FE25E003F0C003C02B19D016F826
:10317000010C9AF80030984213D1E3789A4210D0AB
:103180007BB16379032262F307136371E170204618
:10319000FFF790FE23799BF8002062F3C5032371AB
:1031A00000E001276078FFF79FFE08B1C0F80080BB
:1031B00027B92434243662E7BDE8F88F24220021A1
:1031C000204609F062FEF4E7237984F820806FF34B
:1031D000C50384F821802371EBE700BF05C00720F9
:1031E00004C00720431EDBB2FD2B9DBF024B1870AD
:1031F00001200020704700BF05C00720014B187850
:10320000704700BF05C0072007289CBF014B1870FE
:10321000704700BF04C007202DE9F74304469146DC
:103220001E469DF828500F46002966D0364B93F86D
:103230000080414563D00F2E61D8002861D0202244
:10324000002109F022FEFF2F237914BF09F00302A9
:10325000002262F38713032262F302032B4A677092
:10326000127884F8008062F3C503294A2371137829
:1032700084F802800133DBB21370A3710BAB0193AE
:1032800015B94FF001081BE004F10809019AE07933
:103290001346526853F8081B00EB02085FFA88F8DF
:1032A000013DB8F1180F0193EDB207D8484409F079
:1032B000C6FD84F80780002DE8D1E2E74FF0000852
:1032C000DFF850900123384689F80030FFF70CFEF4
:1032D0000546FFF71BFE002389F80030637925B906
:1032E00066F307136371E57005E0AA7862F30713CC
:1032F00063716B78E370404603E0084601E000200C
:10330000FFE703B0BDE8F08305C0072004C0072035
:1033100038C6072045C60720124B012270B51A7027
:1033200004461E4608B9002518E0FFF7A5FD05462E
:103330000028F8D0237903F0C003402B06D0C02B1F
:103340000AD1E37853B162789A4207D06179204676
:103350000909FFF711FE01E0802BF7D0002333703D
:10336000284670BD45C6072082B02DE9F04391463E
:10337000421ED2B28DB0FD2A05460E4615939DF829
:10338000688001D9002057E0002BFBD0179F002F49
:10339000F8D0199B002BF5D0189B002BF2D0169B70
:1033A000002BEFD048220021264809F06EFD902224
:1033B0000021254809F069FD10220021234809F069
:1033C00064FD234B00241C605C609C60214B1C60EE
:1033D0005C609C60204B1D70204B214D1E7015AE13
:1033E0000FCE0FC53368182221461E482B6009F006
:1033F0004CFD494617221B480BF08EFA2146204609
:10340000B8470028BED0B8F1000F02D1FFF70EFD7B
:1034100012E006230293144B2246019301230093EA
:10342000FF2104A8FFF7F8FE0028ABD004A8FFF79F
:1034300073FF0028A6D0E9E70DB0BDE8F04302B065
:10344000704700BF81C60720A8C5072053C60720C4
:1034500047C6072039C6072005C0072046C60720F3
:1034600094C5072068C60720D94F020030B5182B35
:103470008DB016D8B2FA82F41D1C18BF012564095C
:10348000AC420ED00293019200950A469DF840305E
:10349000014604A8FFF7C0FE18B104A8FFF73CFFDF
:1034A00000E000200DB030BD13B5537914781B092E
:1034B000009302460B4620460321FFF7D7FF02B0D8
:1034C00010BDFFFF00231A4630B5084C14F82350F6
:1034D000990035B1904202D10448084430BD013210
:1034E000D2B20133042BF1D1002030BD53C60720E6
:1034F00000231846044A12F8231009B10130C0B263
:103500000133042BF7D1704753C607202DE9F04152
:1035100088B020220021684609F0B7FCA14B1B7837
:1035200003F0FF04002B40F039819F4F20213B69BD
:1035300068469847002800F084809C4D6B880133D2
:103540006B80FFF7D5FF9DF80420A87202F00703F7
:10355000032B04D0964A137843F0010309E0954BFE
:103560001D789DF80230AB4205D1914A137843F0A3
:1035700002031370E4E0C2F3C2029DF800E09DF87C
:1035800006008D49D6B204EB440313F801C0F4459C
:103590000BD10B4493F801C0844506D199780124DE
:1035A0008E1B18BF01269A7018E00134042CEAD152
:1035B00082490B689A70804A587002F10900834270
:1035C00083F800E040F0C9800A609DF800009DF893
:1035D0000230834240F0C480002426469DF8020059
:1035E000FFF712FD9DF8022002709DF80220427044
:1035F00000228270FFF78AFC04B116B39DF80030F8
:10360000AB4200F09C809DF80160FF2E1BD13B680F
:1036100020216846984720B9654A137843F004038F
:1036200013709DF8053003F00F02511C61F3030382
:103630008DF80530C3F303139A4202DA6846FFF7A8
:103640001BFC00247CE0B5422BD164B99DF8073007
:103650004BB13B6820216846984720B9544A1378FB
:1036600043F0040313709DF8043003F0C003402BB3
:1036700012D19DF807306A4613B91821504808E066
:103680000C214A48FFF710FF002858D100216A4654
:103690000846FFF709FF52E09DF80330002B4ED19A
:1036A000F4E7484B1B78002BCBD09DF8054004F085
:1036B0000F074FEA14184745C3DA013767F30304CD
:1036C0003046FFF711FC8DF805409DF80340A542F8
:1036D00021D19DF8041001F0C001402906D0A1F1CC
:1036E00080035A425A41144610B90CE0012260B1DD
:1036F000C029437805D19E4203D0003318BF01236F
:1037000004E0002302E0C0290ED10346134303F076
:10371000010420B908E094B908B941460CE04378A7
:103720008DF80330857802E000258DF80350684657
:10373000FFF7A2FB1CB129466846FFF71DFC6C464B
:10374000FFF774FB204604221F49FFF789FC022281
:103750001E492046FFF784FC20E003330B6034E76A
:1037600085423FF439AFFFF74FFC0446FFF7CEFB2D
:1037700023783BB19DF80530A27803F00F03934204
:103780003FF72AAF9DF8003023709DF80230637038
:103790009DF80530C3F30303A3701DE708B0BDE82F
:1037A000F08100BF45C6072094C5072039C6072011
:1037B00080C6072005C0072047C6072000C0072095
:1037C00068C6072046C60720A8C5072081C607206F
:1037D00000231846094AD118497809B10130C0B20E
:1037E0002433902BF7D1064B5A780AB10130C0B27E
:1037F00093F825300BB10130C0B27047A8C507203F
:1038000081C6072008B5FFF76FFB064B28B1827809
:10381000187802FB0000C00008BD18781823584330
:1038200008BD00BF04C0072003490B6803604B6854
:1038300043608B688360704739C6072070B53E4C83
:103840004FF48035E5613D4CA0602046C5683B4C97
:10385000ED06FBD4A0680D46C0B20BB923465FE06D
:103860002346002A63D0072A0E782DDD9E604E780D
:10387000083A9E608E789E60CE789E600E799E603B
:103880004E799E608E799E6001F10806C979996033
:1038900099694907FCD5A1682970A1686970A16878
:1038A000A970A168E970D968C906FCD4A168083577
:1038B00005F8041CA16805F8031CA16805F8021CA2
:1038C000A16805F8011C1AE0032A1ADD9E604E78F3
:1038D000043A9E608E789E600E1DC9789960D96802
:1038E000C906FCD4A168043505F8041CA16805F8D4
:1038F000031CA16805F8021CA16805F8011C3146EB
:10390000AFE701319E60013ADE68F606FCD4A66896
:10391000013505F8016CA4E7E668F606FCD4A66854
:103920006E1AB24203DD15F8016B9E60F4E7024B9C
:103930004FF480329A6170BD00C0092000800840B9
:1039400007B5002302A901F8013D01231A4600F042
:103950001F00FFF773FF9DF8070003B05DF804FB3D
:1039600013B502AC04F8011D00F01F000023012272
:10397000214640F02000FFF761FF02B010BD08B5FE
:103980001720FFF7DDFFC0F3001008BD70210720EE
:10399000FFF7E6BF0A4600230146A020FFF74EBF0F
:1039A00008B50020FFF7CCFFBDE8084000F0FE019D
:1039B0000020FFF7D5BFFFFF024B4FF08072DA61A6
:1039C000704700BF20C0092008B50020FFF7B8FFEE
:1039D00040F00101C9B20020FFF7C2FF024B4FF0D7
:1039E00080729A6108BD00BF20C0092020210720F5
:1039F000FFF7B6BF00231A461946E120FFF71EBFA6
:103A000037B504460D46FFF7F5FF20462946FFF778
:103A1000C1FF0D4B4FF080721C469A610022ADF839
:103A20000620BDF8063001339BB2ADF8063033B93D
:103A30004FF08073E361FFF7DDFF03B030BDFFF7A8
:103A40009EFF0028EDD0F3E720C0092008B517201D
:103A5000FFF776FF00F0010080F0010008BD402173
:103A60000720FFF77DBF08B50A4601230146612004
:103A7000FFF7E4FEC0F3420008BD00231A461946D2
:103A8000E220FFF7DBBE70B5064600200D46144667
:103A9000FFF756FF16B100F0BF0002E040F0400013
:103AA000C0B215B100F0DF0101E040F0200114B117
:103AB00001F0EF0101E041F010010020BDE870408D
:103AC000FFF74EBF10B504460020FFF739FF14B9C9
:103AD00000F0F7010DE0012C04D100F0FB0141F0F2
:103AE000080106E0022C14BF40F0080140F00C0170
:103AF000C9B20020BDE81040FFF732BF08B5002072
:103B0000FFF71EFFBDE8084040F00201C9B20020E7
:103B1000FFF726BF08B50020FFF712FFBDE80840F9
:103B200000F0FD010020FFF71BBF40F6DD139842B7
:103B300006D840F66213B0F5166F38BF184600E09D
:103B40001846A0F51661C9B20520FFF709BF10B5E8
:103B500004460620FFF7F4FEFA2C00F0D70102D14C
:103B600041F0200104E0B4F5FA6F08BF41F008010C
:103B70000620BDE81040FFF7F3BE10B5044606204E
:103B8000FFF7DEFE032C28BF032420F0060040EAE6
:103B90004401C9B20620BDE81040FFF7E1BEF92894
:103BA0004FF0FA0305D9B0F57A6F88BF4FF47A6009
:103BB00000E01846B0FBF3F00F2900F1FF30C0B26F
:103BC00028BF0F2141EA0011C9B20420FFF7C8BE87
:103BD0001130C0B2162804D8202928BF2021FFF7B1
:103BE000BFBE7047032804D0042814BF032102215C
:103BF00000E001210320FFF7B3BE0A46002301467F
:103C00003020FFF71BBE0A46002301462A20FFF79B
:103C100015BEFFFF73B50E4615460446FFF72DFF90
:103C2000FFF7E8FE2B4B4FF08072DA61FFF772FF6F
:103C3000002211460120FFF726FFFFF7A7FE022012
:103C4000FFF740FF3046FFF770FF2846FFF77FFF82
:103C50000320FFF792FF03210220FFF781FE0021DE
:103C60000120FFF77DFE03214FF4FA70FFF797FF65
:103C700021460020FFF7ACFF00211220FFF770FE65
:103C800000211320FFF76CFE00211420FFF768FECF
:103C900000211520FFF764FE00211620FFF760FECB
:103CA0000D4B18681B79009005208DF80430FFF744
:103CB00099FF68460521FFF7A0FF05216846FFF739
:103CC000A2FFFFF71BFF4FF4FA6004F0F1FB02B014
:103CD00070BD00BF20C00920E04F020070B5174E34
:103CE000326822B92021032005F018FF3060144DFE
:103CF0002A6822B92021012005F010FF2860114C0C
:103D0000216821B90322012005F008FF20604FF44B
:103D1000FA6240F6C3112020FFF77CFFFFF754FE44
:103D20001620094A012104F085FD306828B1286871
:103D300018B12068003018BF012070BDD0C6072020
:103D4000CCC60720D4C60720F53D010070B5037925
:103D5000014603F0C003C02B0CBF0E4B0E4B88B0C6
:103D60001D68002306461A46284605F0F9FE04465B
:103D700060B9034602466946284605F0F7FF234628
:103D800022463146284605F0EBFE0446204608B0A0
:103D900070BD00BFCCC60720D0C6072038B504468A
:103DA0000D46FFF72BFA237883420AD0E37843B914
:103DB0000AF09AFABD2300F0030000FB033004F080
:103DC00077FBFFF7F9FDFFF7EBFDA9B22046FFF700
:103DD00017FEFFF70BFEFFF7F7FD06F017FE0228B0
:103DE00004D1034B0021186805F08EFF012038BD77
:103DF000D4C6072007B5002302A941F8043D084BAB
:103E0000186805F081FF019B3BB1064B4FF08052D3
:103E10001A60BFF34F8FBFF36F8F03B05DF804FBE1
:103E2000D4C6072004ED00E038B504460D46FFF780
:103E30000DFE48B1A9B22046FFF715FEFFF706FEBA
:103E400008B9FFF70CFE012038BD2DE97043054687
:103E50000E46144606F0DAFD022807D1224600235A
:103E60003146284605F082FFC4B21DE007F080F914
:103E70004FF47A72002308F0E3FB10EB040841F1E1
:103E8000000900231A463146284605F06FFFC4B2E8
:103E900054B907F06DF94FF47A72002308F0D0FBA3
:103EA000894508BF8045ECD22046BDE870830429CF
:103EB00038B5054603D1041C18BF012400E00024D6
:103EC00007F056F92CB14FF47A72002308F0B8FBD2
:103ED0002860204638BDFFFF00B50C4B8DB009931C
:103EE0000B4B0C4A0B930C4B0A930CAB43F8102D65
:103EF000002204920FCB8DE80F00084B084A0121E5
:103F00006A20FFF731FA0DB05DF804FBDD3C0100DB
:103F1000293E0100AF3E01009D3D01004D3D0100E5
:103F2000E54F0200024B0A4601461868FFF78DBFB5
:103F3000D0C60720024B0A4601461868FFF785BF26
:103F4000CCC6072008B506F061FD0F4B02285B695F
:103F500013D15A020DD5FFF73BFC00280B484FF058
:103F6000000314BF01224FF0FF321946006805F02C
:103F7000FDFEBDE80840FFF7C9BA5B02F9D5FFF7BF
:103F800027FC0028F5D108BD00C00920D4C60720B1
:103F900013460A460179006805F0DFB81FB5002214
:103FA00004AB047923F8042D0222009200680A462B
:103FB000214605F0BDF89DF80C009DF80D3043EA50
:103FC000002004B010BD10B5044619222A21FFF7C5
:103FD000DFFF0D222179206805F0AEF8A0F12A0359
:103FE0005842584110BDFFFF044A13881F2B9FBF42
:103FF000581C1080024A42F823107047DCC6072084
:10400000E0C60720154AF0B513881646012B21D9C2
:10401000134A00201546013B984206DA516814689D
:104020000130091B42F8041BF6E700210C466A68C0
:104030004FF0010E02EB52008AB2934208DD55F8B0
:1040400022700131B8423CBF0EFA02F21443F3E78A
:10405000044B1C6000233380F0BD00BFDCC607208A
:10406000E0C60720D8C6072008B50121022007F0C6
:1040700019F8084B01209A6A22F007029A629A6A9C
:1040800042F006029A62044AD36843F03003D360D8
:1040900008BD00BF0080004000C0024008B5044BCE
:1040A000417101F07F015A5C0321FFF771FF08BDE8
:1040B000EA4F020008B5044B817101F07F015A5CA0
:1040C0000221FFF765FF08BDEA4F020038B504463C
:1040D0000179006805F04CF8054688B100220621F8
:1040E0002046FFF755FF002207212046FFF750FF2B
:1040F0002E212046FFF7D2FF2E212046FFF7DAFFC0
:10410000284638BD642370B5B1FBF3F404FB1311EA
:10411000CCB20A21B4FBF1F501FB15413031C9B233
:104120000646FFF7C7FF092C88BF05F1300130466E
:10413000BDE8704094BF2021C9B2FFF7AFBF012096
:104140007047FFFF38B50D46044606F095FD05F0B3
:104150000F032370114B15F0010F4FF0010214BF34
:10416000DA619A61227812F0020F4FF0020214BF56
:10417000DA619A61227812F0040F4FF0100214BF36
:10418000DA619A61227812F0080F4FF4807214BF3E
:10419000DA619A61BDE8384006F07EBD20C0092092
:1041A00001207047022004F019BA01207047FFFF78
:1041B000044B5B69180B00F00C00C3F34123184358
:1041C000704700BF20C0092010B50446812201219C
:1041D000FFF7DEFE01222179206804F0ADFF10F028
:1041E000600F14BF0120002010BD38B50021044627
:1041F000FFF7D4FE812205B201212046FFF7C8FE59
:10420000102095FBF0F008F031F84FF0765108F0EF
:1042100081F8A16807F076FF38BDFFFF08B5FFF70A
:10422000E4FF054908F076F8044908F027F94FF053
:10423000844107F067FF08BD000010410000A04066
:104240002DE9F04FADF2546D0C4690460146012227
:1042500082A8994602F03EF8002867D121460A223A
:104260000DF22C4002F036F8044620B182A802F08C
:104270009AFA20465AE06D460646074628600190A5
:1042800006F076FF4FF47A72002308F0D9F92B4636
:1042900083464FF4007202A982A802F0B5F8824664
:1042A000E0B92A68D2B106F063FF4FF47A720023B6
:1042B00008F0C6F9B0EB0B00074406F059FF4FF4C5
:1042C0007A72002308F0BCF901AB83462A6802A980
:1042D0000DF22C4002F050F98246B0B1B8F1000F57
:1042E00001D0C8F80070B9F1000F01D0C9F8006022
:1042F000DDF8783603B11C6082A802F054FA0DF2A2
:104300002C4002F050FA504610E001992A68914280
:10431000E4D106F02DFF00234FF47A7208F090F9F3
:104320002B68B0EB0B0006441C44A9E70DF2546D5A
:10433000BDE8F08FF0B5ADF50B7D0E461746014692
:104340001D460122002301A8009301F0C3FF04468B
:1043500070B91DB1294601A802F037FA6B463A46FA
:10436000314601A802F050F8044601A802F01BFAF9
:1043700020460DF50B7DF0BDF0B5ADF50B7D0E467D
:10438000174601461D460A22002301A8009301F0AA
:10439000A1FF044670B91DB1294601A802F015FA23
:1043A0006B463A46314601A802F0E6F8044601A8F9
:1043B00002F0F9F920460DF50B7DF0BDF0B5ADF535
:1043C0000B7D0E46174601461D461222002301A80A
:1043D000009301F07FFF044680B90DB1294600E04B
:1043E000049901A802F0F1F96B463A46314601A85A
:1043F00002F0C2F8044601A802F0D5F920460DF5F6
:104400000B7DF0BD7F2810B516D931B1FF2812D829
:104410000A4B803833F8100010BD084A32F81140BA
:104420008BB2844203D001318029F7D10B4603F1CE
:104430008000C0B210BD002010BD00BF6A50020055
:104440000649002331F8132032B1824201D00133F2
:10445000F8E7034A32F81300704700BF6A510200C0
:104460004A53020010B501200C4605F0FDFB206008
:10447000003018BF012010BD0120704710B5044660
:1044800006F0C4FA02280AD1002319464FF0FF3281
:10449000204605F06BFC431E5842584110BD0120D8
:1044A00010BD10B5044606F0B1FA022807D100236A
:1044B0002046BDE810401A46194605F051BB10BD14
:1044C00010B5044604F038FC24B1012C06D100F0EC
:1044D00081F901E000F002FD044600E0042404F04C
:1044E00043FC204610BD28B1012801D004207047AC
:1044F00000F028BA7047F8B507460C4615461E4628
:1045000004F01AFC3FB1012F0CD132462946204657
:1045100000F020FA04E032462946204600F02AFD49
:10452000044600E0042404F01FFC2046F8BDF8B562
:1045300007460C4615461E4604F0FEFB3FB1012F10
:104540000CD132462946204600F050FA04E03246AB
:104550002946204600F030FD044600E0042404F023
:1045600003FC2046F8BD70B506460C46154604F01F
:10457000E3FB36B1012E0AD12946204600F090FA1D
:1045800003E02946204600F037FD044600E00424FD
:1045900004F0EAFB204670BD08B506F0E9FD4FF4D3
:1045A0007A72002308F04CF808BDFFFF10B50446EE
:1045B00006F058FF074BB0FBF3F00223B0FBF3F219
:1045C000944202D3044A136110BDB3F5807FF9D041
:1045D0000233F3E740420F0000000340044B9860B1
:1045E000DA68D206FCD4024B9868C0B2704700BFAC
:1045F0000000034070B5FFF7CFFF00F5FA74FF200D
:10460000FFF7ECFF0025FF20FFF7E8FFFF28064635
:1046100005D0FFF7C1FFA94208BFA042F3D330463F
:1046200070BDFFFF38B5064C4FF00075E561FFF730
:10463000E1FF044AA561137843F00103137038BD0C
:1046400020C0092006C007202DE9704306460D460C
:10465000FFF7A2FF643080464FF00009FF20FFF70C
:10466000BDFFFF2808D1FFF797FF494508BF404528
:10467000F4D30020BDE87083FE28FAD1102D06D9AE
:1046800000224FF40071304604F0F4FA19E0341DB2
:104690000435FF20FFF7A2FF04F8040CFF20FFF70A
:1046A0009DFF04F8030CFF20FFF798FF04F8020CAD
:1046B000FF20FFF793FF043404F8050C2B1BDE42A8
:1046C000E7D1FF20FFF78AFFFF20FFF787FF0120D8
:1046D000BDE8708370B506460D46FFF78BFFFF28D7
:1046E000044619D12846FFF779FFFD2D16D0224642
:1046F0004FF40071304604F0BDFA2046FFF76EFF1C
:104700002046FFF76BFF2046FFF768FF00F01F0011
:10471000431F5842584170BD002070BD012070BD3C
:10472000020638B504460D4607D500217720FFF76D
:10473000F7FF012838D804F07F041C4B4FF00072BB
:104740009A61DA61FFF756FFFF28014628D120461B
:10475000FFF744FF280EFFF741FFC5F30740FFF7BF
:104760003DFFC5F30720FFF739FFE8B2FFF736FF3B
:10477000402C17D0482C14BF01208720FFF72EFFB4
:104780004C2C02D10846FFF729FF0A21FF20FFF732
:1047900025FF030608D5013911F0FF01F6D138BD18
:1047A000FF2038BD9520EEE738BD00BF20C00920AE
:1047B000064A074913784969DBB2490154BF03F03F
:1047C000FD0343F003031370704700BF06C00720CA
:1047D00020C009202DE9F743FFF7EAFF564B1A786E
:1047E0001E4612F0020F01D01878A1E00120FFF759
:1047F000DDFE0A24FF20013CFFF7F0FE14F0FF0469
:10480000F8D14E4F4FF00073FB6121464020FFF777
:1048100087FF012802D04FF0000875E0FFF7BCFECB
:104820004FF4D57100F57A754820FFF779FF01281C
:1048300041D10DF10408FF20FFF7D0FE08F8040075
:104840000134042CF7D19DF80630012BE3D19DF8FB
:104850000730AA2BDFD12C460025FFF79DFEA94289
:1048600008BFA04206D3FFF797FEA94208BFA042A7
:10487000D1D207E04FF08041E920FFF751FF002837
:10488000EBD1F0E700217A20FFF74AFF0028C2D1E0
:104890000146FF20FFF7A2FE08F8010001310429BC
:1048A000F7D19DF8043013F0400F14BF4FF00C08FF
:1048B0004FF0040828E02146E920FFF731FF0228E5
:1048C0002C4635BF4FF002084FF001084FF0E909C0
:1048D0004FF041090025FFF75FFEA94208BFA04243
:1048E0000BD3FFF759FEA94208BFA0420CD34FF4E7
:1048F00000715020FFF714FF06E000214846FFF743
:104900000FFF0028E7D1ECE70D4B83F800804FF054
:104910000073BB61B8F1000F07D03378182003F0A3
:10492000FE033370FFF742FE01E0FFF77BFE3078B5
:10493000C0B203B0BDE8F08306C0072020C0092044
:1049400060C7072008B5FFF733FF014B187808BD93
:1049500006C0072070B5144606460846FFF728FF34
:10496000002C39D01E4B1B78DB0737D41D4B4FF082
:104970000072DA611C4A1D46127812F0080F08BF57
:104980004002012C01460CD15120FFF7C9FEE0B9CD
:104990004FF400713046FFF757FEB0FA80F4640917
:1049A00013E05220FFF7BCFE78B94FF40071304697
:1049B000FFF74AFE28B1013C14F0FF0406F500762B
:1049C000F3D100214C20FFF7ABFE4FF00073201C09
:1049D000AB6118BF012070BD042070BD032070BD05
:1049E00006C0072020C0092060C70720F8B514467C
:1049F00006460F46FFF7DCFE002C44D0254B1A7804
:104A0000D20742D41B785B0741D4234B4FF000728E
:104A1000DA61224A1D46127812F0080F08BF7F02A1
:104A2000012C0CD139465820FFF77AFE18BBFE2125
:104A30003046FFF74FFEB0FA80F464091CE012F034
:104A4000060F03D02146D720FFF76AFE39465920CA
:104A5000FFF766FE80B9FC213046FFF73BFE28B128
:104A6000013C14F0FF0406F50076F4D1FD2100208E
:104A7000FFF730FE00B901244FF00073201CAB613A
:104A800018BF0120F8BD0420F8BD0320F8BD0220A6
:104A9000F8BD00BF06C0072020C0092060C707205E
:104AA0007FB50D46FFF784FE05281AD12B78012B20
:104AB00000F0048103D3022B0BD0042001E1824BD0
:104AC000586910F0806440F0F980FFF7ABFD204694
:104AD000F7E07D4B5B6983F08063C3F380636B70A9
:104AE000ECE07A4B1B78DB0700F1EA800E2800F23D
:104AF000DF80DFE800F008124F53DDDDDDDDDDDDB6
:104B0000AAAFB2BBCB00704B4FF00072DA61FFF777
:104B100071FDFF3818BF0120CBE000214920FFF7CD
:104B2000FFFD044608B10120C3E010216846FFF7ED
:104B30008BFD0028F7D09DF800309DF808109B09E8
:104B4000012B9DF8093006D1013303EB012189B215
:104B5000890229606BE09DF807209DF8050092000E
:104B600002EB91119DF806200131920202F440629D
:104B700011449DF80A2000F00F0000EBD2105A00FB
:104B8000023002F006028318DBB289B2093B01FA57
:104B900003F34BE04FF400732B8059E04C4E337815
:104BA00003F0040303F0FF01F3B10021CD20FFF770
:104BB000B7FD0028B7D1FF20FFF710FD1021684690
:104BC000FFF742FD0028AED03021FF20FFF706FDA1
:104BD000481E10F0FF01F8D19DF80A3008461A0966
:104BE000102393402B6064E04920FFF799FD0446B1
:104BF000002898D110216846FFF726FD002892D0A2
:104C000036789DF80A2006F0020606F0FF009DF8AF
:104C10000B3076B1520002F07E0202EBD3135A1C25
:104C20009DF80D309B09013B02FA03F32B602046EF
:104C30003FE0D90001F01801C2F3840201EB5311E7
:104C4000531C01FB03332B6033E0214B1B782B708B
:104C500000202EE00021492001E000214A20FFF73A
:104C60005FFD00287FF45FAF10211AE000217A2059
:104C7000FFF756FD00287FF456AF291DFF20FFF7F0
:104C8000ADFC05F8010B8D42F8D1E1E70021CD2004
:104C9000FFF746FD00287FF446AFFF20FFF79EFC9C
:104CA00040212846FFF7D0FCB0FA80F0400900E030
:104CB0000420054B4FF000729A6102E0002000E0F2
:104CC000032004B070BD00BF20C0092006C007202B
:104CD00060C70720054B1B78253BDBB2032B9ABF2F
:104CE000034A52F823000020704700BF64C7072022
:104CF000345502001B4B2DE9F0411D880646B5F5E1
:104D0000007F0F46144602D12A46214613E0B5F52E
:104D1000807F09D12A4621463846B0472A4604F505
:104D2000807107F5807016E0B5F5047F05D1510A52
:104D300089024FF4007238460DE0B5F5847F0ED13C
:104D4000140A61024FF480723846B047611C4FF478
:104D500080724902B8183346BDE8F0411847BDE8F3
:104D6000F08100BF62C7072030B52F4C03462546AF
:104D7000002958DD07291A782DDDA2605A780839F4
:104D8000A2609A78A260DA78A2601A79A2605A7951
:104D9000A2609A79A26003F10802DB79A360A3699B
:104DA0005B07FCD5AB680370AB684370AB6883707E
:104DB000AB68C370E368DB06FCD4AB68083000F86E
:104DC000043CAB6800F8033CAB6800F8023CAB68FD
:104DD00000F8013C1AE003291ADDA2605A78043970
:104DE000A2609A78A2601A1DDB78A360E368DB06F4
:104DF000FCD4AB68043000F8043CAB6800F8033C1A
:104E0000AB6800F8023CAB6800F8013C1346AFE722
:104E10000133A2600139E268D206FCD4AA680130ED
:104E200000F8012CA4E730BD0000034007B50B0CCF
:104E30008DF805308DF807100B0A04218DF8040059
:104E40000DEB01008DF80630FFF78EFF03B05DF823
:104E500004FBFFFFF7B5174606460E4C402503231B
:104E6000E5618DF804300B0C8DF805308DF80710D6
:104E70000B0A04210DEB01008DF80630FFF774FFDB
:104E800000223946304603F0F5FEA561A561A56113
:104E900003B0F0BD00C009200E4B4022DA610E4B7A
:104EA000D7229A601A46D1680B4BC906FBD49A6880
:104EB0001A46FF219960D068C006FCD4906810F0B3
:104EC000800FF7D0034B40229A61C0B29A619A6179
:104ED000704700BF00C0092000000340F7B5FFF78E
:104EE000DBFF1F4C002323801E4B1F4E40271A88D8
:104EF0009B78F7610321054601A8ADF804208DF8E1
:104F00000630FFF731FF9DF805209DF806301F2A77
:104F1000B7612146B761B7611CD1A3F12502032A0D
:104F200018D8124A252B137005F0010006D100286D
:104F300014BF4FF480734FF4847305E0002814BF4E
:104F40004FF400734FF404730B80FFF7C3FE084B5C
:104F5000400A18600888B0FA80F0400903B0F0BD3C
:104F600062C707202A55020000C0092064C7072035
:104F700068C70720F8B58B1817460D4A013B126821
:104F80000446934210D84D02FFF786FF00262D1BE2
:104F9000BE4204EB050209DA21460648FFF7AAFEE5
:104FA00004F500740136F3E70120F8BD0020F8BDD8
:104FB00068C70720554E0100F8B58B1817460C4AF4
:104FC000013B126893420FD804460026C0EB4125EE
:104FD000BE4204EB050209DA21460648FFF78AFEC5
:104FE00004F500740136F3E70120F8BD0020F8BD98
:104FF00068C70720D950010008B5072805D8DFE8A1
:1050000000F006090E1214141414042008BDFFF752
:1050100043FF0AE0FFF75EFE400A086005E04FF438
:1050200000730B8001E001230B60002008BDFFFF2F
:1050300070B590B003466A466E4600F140051446CE
:1050400018685968083303C4AB422246F7D1084DAB
:105050004024EC6100219B20FFF7E8FE214630460A
:10506000FFF782FEAC61AC61AC6110B070BD00BFF7
:1050700000C0092070B50646074D40240021772066
:10508000EC61FFF7D3FE21463046FFF76DFEAC61C1
:10509000AC61AC6170BD00BF00C0092008B5064B13
:1050A000198831F01F0104D0FFF714FEB0FBF1F0B6
:1050B00008BD084608BD00BF62C70720014B18881D
:1050C000704700BF62C70720024B1878003018BF36
:1050D0000120704762C707202DE9F7434FF0FF33E7
:1050E0000F46914601938046FFF7D6FEFFF7ECFF8F
:1050F0000646B8B1194C4025194BE5611B880320C1
:10510000B3F5847F0CBF4FF480714FF400713943C5
:10511000FFF78CFE04210DEB0100FFF725FEA561D2
:10512000A561A5610D4C402339468220E361FFF75C
:105130007DFE01224946404603F09CFD3EB1019BA5
:1051400002A8013340F8043D0421FFF70DFE40237F
:10515000A361A361A36103B0BDE8F08300C009208F
:1051600062C70720124B37B51B88B3F5847F0CBF8D
:105170004FF480714FF400714FF0FF3341EA40214A
:105180000193FFF7A1FF68B10A4C40250320E561B8
:10519000FFF74CFE04210DEB0100FFF7E5FDA561D3
:1051A000A561A5610198431C08BF002003B030BD74
:1051B00062C7072000C0092037B5084B084C1868A3
:1051C000402504210190E5610DEB0100FFF7CCFDC6
:1051D000A561A561A56103B030BD00BF2D550200DA
:1051E00000C009201FB501A803F068FC9DF8083035
:1051F0009DF8092003F01F0302F00F021B0443EA8D
:1052000042519DF806309DF8040003F01F0341EA67
:10521000C3229DF80530C0F3440003F03F0342EA87
:105220004313BDF80A201843520602F10842104306
:1052300005B05DF804FB30B504460D1F131B034495
:10524000032B04D955F8043F44F8043BF6E79408CF
:10525000A3001944A2EB8402013B18440A44914282
:1052600004D011F8013B00F8013FF8E730BD0244DB
:10527000904202D000F8011BFAE7704700F10B01E1
:105280000023DA0142EA530310F8012B1344884249
:1052900003F0FF03F5D118467047036810B50446C4
:1052A000B3B119460A4611F8010B1F2802D93A2852
:1052B000F8D101E0002010BD591C8A4208D11B78AA
:1052C000303BD9B2012903D801321846226010BD03
:1052D0004FF0FF3010BD03692DE9F04101F10902E3
:1052E0000D4663B3416900244E1E2E2716F8013F78
:1052F0000134202B19D0052B48D0092C01D117706F
:105300000132A3F1410EBEF1190F0CD8082C91F80F
:105310000CE08CBF4FF0100C4FF0080C1CEA0E0F85
:105320001CBF2033DBB2137001320B2CDED1CB7AE1
:105330002B72CB692B600B8BAB80CB8AEB8000246C
:105340001470AE693EB303690BB900241AE0EB692F
:10535000002BFAD04FF6FF73028C9A42F5D0D0F8AA
:105360001C80771E38F8140060B10021FFF74AF85E
:105370000028EAD0EB69013B9C42E6D2013407F8F1
:10538000010FEFE700233355BDE8F081092C4FF002
:10539000E503C8D1B3E7BDE8F081F8B5056B00F1CE
:1053A0003407044601232A4639464078FFF7BFF800
:1053B000A0B9636AE269EB1A9342207101D300201D
:1053C000F8BDE678012EFAD9E36939461D442A462C
:1053D00001236078FFF7ABF8013EF3E70120F8BD49
:1053E00003790BB1FFF7D9BF1846704770B5044673
:1053F000FFF7F6FF054680BB2378032B25D16379A1
:10540000012B22D104F1340601464FF400723046DC
:10541000FFF72DFF4AF65522A4F832220F4A3146F3
:10542000626302F1FF5202F500522032C4F81822E2
:1054300062696078C4F81C222269C4F82022226ABA
:1054400001322263FFF773F865710022114660781C
:10545000FFF789F8003018BF012070BD525261413A
:10546000036B70B58B4205460E4610D0FFF7B8FFB0
:10547000044608B101240BE00123324605F1340152
:105480006878FFF738F80028F4D12E6300E0002494
:10549000204670BD002310B503714FF0FF33036346
:1054A0000446FFF7DDFFA0B94AF65523B4F83222CF
:1054B0009A4210D1D4F86A30084A23F07F439342CD
:1054C0000AD0D4F8860020F07F40801A18BF01204F
:1054D00010BD032010BD022010BD00BF4641540086
:1054E0002DE9FF4100230360074608461546FFF7F4
:1054F000D4FE061EC0F2FA80854B53F82640002CDD
:1055000000F0F680E068FEF7B9FF002800F0F280B6
:105510003C60237883B16078FEF7E5FFC1070BD4C8
:10552000002D00F0E98000F0040303F0FF00002BE1
:1055300000F0EB800A20E8E00023F0B223706070F6
:10554000FEF7BEFFC20700F1D9800DB14307F1D4C9
:1055500000212046FFF79EFF01281CD12146002292
:1055600091F8F6310BB1D1F8FA314DF82230013211
:10557000042A01F11001F3D100265DF826502DB167
:1055800029462046FFF786FF08B90BE002200136C6
:10559000042EF2D100E00025032800F0B18008B10C
:1055A0000D20B2E0B4F83F30B3F5007FF8D1B4F885
:1055B0004A6006B9A66D94F844E0E6610EF1FF3347
:1055C000012B84F803E0EBD894F84130A370002B52
:1055D000E6D05A1E1A42E3D1B4F845C01CF00F0FB2
:1055E000A4F808C0DCD1B4F8472002B9626DB4F861
:1055F00042100029D4D006FB0EFE01EB1C177744A5
:10560000BA42CDD3D21BB2FBF3F3002BC8D040F685
:10561000F572934203F1020005EB01022F4410D909
:105620004FF6F5718B426DD9A06125626262E76227
:10563000BCF1000FB4D1236E4FF00308A3628300C6
:1056400018E04FF00108A06125626262E762BCF1D8
:10565000000FA5D0B8F1020F4FEA400318BF1B1886
:10566000724418BF00F00100A2621CBF00EB53039C
:105670004FF0010803F2FF13B6EB532F90D34FF016
:10568000FF3363612361B8F1030F4FF0800363714F
:1056900022D1B4F86430012B1ED1691C2046FFF7DB
:1056A000DFFEC8B94AF65523B4F8322260719A4237
:1056B00012D1626B174B9A420ED103F1FF53D4F80B
:1056C000182203F5005320339A4201BFD4F81C324C
:1056D0006361D4F8203223610F4A84F80080138874
:1056E000002001339BB21380E3800EE00B200CE01E
:1056F0000C200AE00F2008E0284606E0032004E022
:10570000012002E04FF002089DE704B0BDE8F081FF
:1057100070C70720525261416CC7072010B504467C
:10572000A8B103689BB11A788AB1D988828891425E
:105730000DD1D868FEF7A2FE58B123685878FEF75D
:10574000D2FE10F0010F14BF0320002010BD09206D
:1057500010BD0F2010BD50B10F2905D84FF41A43CA
:1057600023FA01F1CB0702D4C068FEF79ABE704756
:1057700083690239023B99423DBF8378C06A01FBCD
:105780000300002070470129F8B507460C464BD9A5
:105790008369994248D20378022B29D0032B34D055
:1057A000012B41D101EB5106416A01EB5621FFF774
:1057B00057FE10B14FF0FF30F8BD796AC6F3080309
:1057C00001363B4401EB5621384693F83450FFF73D
:1057D00047FE0028EED1C6F308063E4496F8340092
:1057E000E30745EA00204CBF0009C0F30B00F8BDF9
:1057F000416A01EB1421FFF733FE0028DAD1630080
:1058000003F4FF73FE18B08EF8BD416A01EBD411AA
:10581000FFF726FE0028CDD1A40004F4FE743C441A
:10582000606B20F07040F8BD0120F8BD70B50446F3
:1058300082680D46012AE18001D1022070BD036813
:1058400099698A42F9D252B91978032901D1996A22
:1058500021B919898D42F0D2986A15E00A469E78DE
:105860003601B542114620680CD3FFF78CFF431C6C
:10587000024618D00128E0D923689B699842DCD2FF
:10588000AD1BEEE7FFF774FFE2600028D5D0236878
:1058900000EB1510343305F00F0503EB45152061BF
:1058A0006561002070BD012070BD0129F8B5054675
:1058B0000C46164660D9836999425DD20378022B63
:1058C00039D0032B43D0012B52D101EB5107416A50
:1058D00001EB5721FFF7C4FD00284AD1C7F30803A5
:1058E00014F001042B4417BF93F83420F2B202F0F5
:1058F0000F0132011CBF02F0F0020A4383F834208A
:10590000696A013701232B7101EB57212846FFF704
:10591000A7FD70BBC7F308072F4414B1C6F30716E1
:1059200006E097F83430C6F3032623F00F031E4336
:1059300087F834601DE0416A01EB1421FFF790FD08
:10594000B8B9640004F4FF742C44A68611E0416ADF
:1059500001EBD411FFF784FD58B9A40004F4FE74E0
:1059600030342C44636803F070431E43666000E0EB
:10597000022001232B71F8BD0220F8BDF8B50546C1
:105980000F4631B9066996B183699E4228BF012648
:105990000EE0FFF7F8FE01283FD9441C02D14FF07A
:1059A000FF30F8BDAB69984238D33E4600E001268F
:1059B0003446AB6901349C4204D3012E01D8002047
:1059C000F8BD022421462846FFF7DDFE30B1411C18
:1059D000E5D0012821D0B442EBD1F0E76FF070425E
:1059E00021462846FFF761FFA8B957B96B692C61BA
:1059F0005A1C0ED0013B6B616B7943F001036B7154
:105A000007E0224639462846FFF74FFF0028EDD031
:105A100001E02046F8BD0128C1D00120F8BD2DE9E4
:105A2000F843C68804460136B3B20F4613B90420C2
:105A3000BDE8F8830369002BF9D016F00F0859D19F
:105A4000C16801330361006819B903899E42EED22F
:105A500050E08378013B13EA16134BD1FFF793FE16
:105A60000128054602D80220BDE8F883421C02D175
:105A70000120BDE8F883206883699D4234D3002F5C
:105A8000D5D0E168FFF77AFF054600283BD0012812
:105A9000E9D0431CECD02068FFF7A2FC07460028A1
:105AA000E6D120684FF4007239463430FFF7DFFB4F
:105AB000226829461046FFF75BFE4FF0010910638C
:105AC00023689A7897420CD283F804902068FFF7F5
:105AD00087FC0028CCD122680137136B0133136394
